{
  "address": "0x65F19072d5Ed1c4aB7BA0b3a04319fCcB3518988",
  "abi": [
    {
      "inputs": [
        {
          "internalType": "address",
          "name": "",
          "type": "address"
        },
        {
          "internalType": "address",
          "name": "",
          "type": "address"
        }
      ],
      "name": "approvedOperator",
      "outputs": [
        {
          "internalType": "address",
          "name": "operator",
          "type": "address"
        }
      ],
      "stateMutability": "pure",
      "type": "function"
    },
    {
      "inputs": [
        {
          "internalType": "address",
          "name": "asset",
          "type": "address"
        },
        {
          "internalType": "uint256",
          "name": "amount",
          "type": "uint256"
        },
        {
          "internalType": "address",
          "name": "vault",
          "type": "address"
        }
      ],
      "name": "borrow",
      "outputs": [
        {
          "internalType": "bool",
          "name": "success",
          "type": "bool"
        }
      ],
      "stateMutability": "nonpayable",
      "type": "function"
    },
    {
      "inputs": [
        {
          "internalType": "address",
          "name": "asset",
          "type": "address"
        },
        {
          "internalType": "uint256",
          "name": "amount",
          "type": "uint256"
        },
        {
          "internalType": "address",
          "name": "vault",
          "type": "address"
        }
      ],
      "name": "deposit",
      "outputs": [
        {
          "internalType": "bool",
          "name": "success",
          "type": "bool"
        }
      ],
      "stateMutability": "nonpayable",
      "type": "function"
    },
    {
      "inputs": [
        {
          "internalType": "address",
          "name": "asset",
          "type": "address"
        },
        {
          "internalType": "address",
          "name": "user",
          "type": "address"
        },
        {
          "internalType": "address",
          "name": "",
          "type": "address"
        }
      ],
      "name": "getBorrowBalance",
      "outputs": [
        {
          "internalType": "uint256",
          "name": "balance",
          "type": "uint256"
        }
      ],
      "stateMutability": "view",
      "type": "function"
    },
    {
      "inputs": [
        {
          "internalType": "address",
          "name": "asset",
          "type": "address"
        },
        {
          "internalType": "address",
          "name": "",
          "type": "address"
        }
      ],
      "name": "getBorrowRateFor",
      "outputs": [
        {
          "internalType": "uint256",
          "name": "rate",
          "type": "uint256"
        }
      ],
      "stateMutability": "view",
      "type": "function"
    },
    {
      "inputs": [
        {
          "internalType": "address",
          "name": "asset",
          "type": "address"
        },
        {
          "internalType": "address",
          "name": "user",
          "type": "address"
        },
        {
          "internalType": "address",
          "name": "",
          "type": "address"
        }
      ],
      "name": "getDepositBalance",
      "outputs": [
        {
          "internalType": "uint256",
          "name": "balance",
          "type": "uint256"
        }
      ],
      "stateMutability": "view",
      "type": "function"
    },
    {
      "inputs": [
        {
          "internalType": "address",
          "name": "asset",
          "type": "address"
        },
        {
          "internalType": "address",
          "name": "",
          "type": "address"
        }
      ],
      "name": "getDepositRateFor",
      "outputs": [
        {
          "internalType": "uint256",
          "name": "rate",
          "type": "uint256"
        }
      ],
      "stateMutability": "view",
      "type": "function"
    },
    {
      "inputs": [
        {
          "internalType": "address",
          "name": "asset",
          "type": "address"
        },
        {
          "internalType": "uint256",
          "name": "amount",
          "type": "uint256"
        },
        {
          "internalType": "address",
          "name": "vault",
          "type": "address"
        }
      ],
      "name": "payback",
      "outputs": [
        {
          "internalType": "bool",
          "name": "success",
          "type": "bool"
        }
      ],
      "stateMutability": "nonpayable",
      "type": "function"
    },
    {
      "inputs": [
        {
          "internalType": "address",
          "name": "asset",
          "type": "address"
        },
        {
          "internalType": "uint256",
          "name": "amount",
          "type": "uint256"
        },
        {
          "internalType": "address",
          "name": "vault",
          "type": "address"
        }
      ],
      "name": "withdraw",
      "outputs": [
        {
          "internalType": "bool",
          "name": "success",
          "type": "bool"
        }
      ],
      "stateMutability": "nonpayable",
      "type": "function"
    }
  ],
  "transactionHash": "0xbc59948a1dc8ddb6465d9aa293a4fad8e3ea4594380fa471b0cbd4f13b2bc4aa",
  "args": [],
  "numDeployments": 1,
  "bytecode": {
    "object": "0x608060405234801561001057600080fd5b50610c25806100206000396000f3fe608060405234801561001057600080fd5b50600436106100a35760003560e01c80636c665a5511610076578063c381f29b1161005b578063c381f29b14610178578063d5407a8a1461018b578063f45346dc1461019e57600080fd5b80636c665a551461015257806393d9ec1d1461016557600080fd5b806304a153ab146100a857806343d54560146100fb57806369328dec1461011c5780636ac979671461013f575b600080fd5b6100d16100b63660046108e7565b5073368eedf3f56ad10b9bc57eed4dac65b26bb667f6919050565b60405173ffffffffffffffffffffffffffffffffffffffff90911681526020015b60405180910390f35b61010e610109366004610920565b6101b1565b6040519081526020016100f2565b61012f61012a36600461096b565b610304565b60405190151581526020016100f2565b61010e61014d3660046108e7565b6103c9565b61012f61016036600461096b565b610497565b61010e610173366004610920565b610559565b61010e6101863660046108e7565b610665565b61012f61019936600461096b565b610733565b61012f6101ac36600461096b565b6107b4565b60008073368eedf3f56ad10b9bc57eed4dac65b26bb667f66040517f35ea6a7500000000000000000000000000000000000000000000000000000000815273ffffffffffffffffffffffffffffffffffffffff87811660048301529192506000918316906335ea6a75906024016101e060405180830381865afa15801561023c573d6000803e3d6000fd5b505050506040513d601f19601f820116820180604052508101906102609190610ab3565b6101008101516040517f70a0823100000000000000000000000000000000000000000000000000000000815273ffffffffffffffffffffffffffffffffffffffff88811660048301529293509116906370a08231906024015b602060405180830381865afa1580156102d6573d6000803e3d6000fd5b505050506040513d601f19601f820116820180604052508101906102fa9190610bd6565b9695505050505050565b6040517f69328dec00000000000000000000000000000000000000000000000000000000815273ffffffffffffffffffffffffffffffffffffffff8481166004830152602482018490528216604482015260009073368eedf3f56ad10b9bc57eed4dac65b26bb667f69081906369328dec906064015b6020604051808303816000875af1158015610399573d6000803e3d6000fd5b505050506040513d601f19601f820116820180604052508101906103bd9190610bd6565b50600195945050505050565b60008073368eedf3f56ad10b9bc57eed4dac65b26bb667f66040517f35ea6a7500000000000000000000000000000000000000000000000000000000815273ffffffffffffffffffffffffffffffffffffffff86811660048301529192506000918316906335ea6a75906024016101e060405180830381865afa158015610454573d6000803e3d6000fd5b505050506040513d601f19601f820116820180604052508101906104789190610ab3565b608001516fffffffffffffffffffffffffffffffff1695945050505050565b6040517fa415bcad00000000000000000000000000000000000000000000000000000000815273ffffffffffffffffffffffffffffffffffffffff8481166004830152602482018490526002604483015260006064830181905290831660848301529073368eedf3f56ad10b9bc57eed4dac65b26bb667f690819063a415bcad9060a4015b600060405180830381600087803b15801561053657600080fd5b505af115801561054a573d6000803e3d6000fd5b50600198975050505050505050565b60008073368eedf3f56ad10b9bc57eed4dac65b26bb667f66040517f35ea6a7500000000000000000000000000000000000000000000000000000000815273ffffffffffffffffffffffffffffffffffffffff87811660048301529192506000918316906335ea6a75906024016101e060405180830381865afa1580156105e4573d6000803e3d6000fd5b505050506040513d601f19601f820116820180604052508101906106089190610ab3565b6101408101516040517f70a0823100000000000000000000000000000000000000000000000000000000815273ffffffffffffffffffffffffffffffffffffffff88811660048301529293509116906370a08231906024016102b9565b60008073368eedf3f56ad10b9bc57eed4dac65b26bb667f66040517f35ea6a7500000000000000000000000000000000000000000000000000000000815273ffffffffffffffffffffffffffffffffffffffff86811660048301529192506000918316906335ea6a75906024016101e060405180830381865afa1580156106f0573d6000803e3d6000fd5b505050506040513d601f19601f820116820180604052508101906107149190610ab3565b604001516fffffffffffffffffffffffffffffffff1695945050505050565b6040517f573ade8100000000000000000000000000000000000000000000000000000000815273ffffffffffffffffffffffffffffffffffffffff848116600483015260248201849052600260448301528216606482015260009073368eedf3f56ad10b9bc57eed4dac65b26bb667f690819063573ade819060840161037a565b60008073368eedf3f56ad10b9bc57eed4dac65b26bb667f66040517f617ba03700000000000000000000000000000000000000000000000000000000815273ffffffffffffffffffffffffffffffffffffffff8781166004830152602482018790528581166044830152600060648301529192509082169063617ba03790608401600060405180830381600087803b15801561084f57600080fd5b505af1158015610863573d6000803e3d6000fd5b50506040517f5a3b74b900000000000000000000000000000000000000000000000000000000815273ffffffffffffffffffffffffffffffffffffffff88811660048301526001602483015284169250635a3b74b9915060440161051c565b73ffffffffffffffffffffffffffffffffffffffff811681146108e457600080fd5b50565b600080604083850312156108fa57600080fd5b8235610905816108c2565b91506020830135610915816108c2565b809150509250929050565b60008060006060848603121561093557600080fd5b8335610940816108c2565b92506020840135610950816108c2565b91506040840135610960816108c2565b809150509250925092565b60008060006060848603121561098057600080fd5b833561098b816108c2565b9250602084013591506040840135610960816108c2565b6040516101e0810167ffffffffffffffff811182821017156109ed577f4e487b7100000000000000000000000000000000000000000000000000000000600052604160045260246000fd5b60405290565b600060208284031215610a0557600080fd5b6040516020810181811067ffffffffffffffff82111715610a4f577f4e487b7100000000000000000000000000000000000000000000000000000000600052604160045260246000fd5b6040529151825250919050565b80516fffffffffffffffffffffffffffffffff81168114610a7c57600080fd5b919050565b805164ffffffffff81168114610a7c57600080fd5b805161ffff81168114610a7c57600080fd5b8051610a7c816108c2565b60006101e08284031215610ac657600080fd5b610ace6109a2565b610ad884846109f3565b8152610ae660208401610a5c565b6020820152610af760408401610a5c565b6040820152610b0860608401610a5c565b6060820152610b1960808401610a5c565b6080820152610b2a60a08401610a5c565b60a0820152610b3b60c08401610a81565b60c0820152610b4c60e08401610a96565b60e0820152610100610b5f818501610aa8565b90820152610120610b71848201610aa8565b90820152610140610b83848201610aa8565b90820152610160610b95848201610aa8565b90820152610180610ba7848201610a5c565b908201526101a0610bb9848201610a5c565b908201526101c0610bcb848201610a5c565b908201529392505050565b600060208284031215610be857600080fd5b505191905056fea2646970667358221220a6eb9d99a56ee62a2795dcd4ae1280f0ff17759d1e86e01d54a8a9bc2155398964736f6c634300080f0033",
    "linkReferences": {}
  },
  "methodIdentifiers": {
    "approvedOperator(address,address)": "04a153ab",
    "borrow(address,uint256,address)": "6c665a55",
    "deposit(address,uint256,address)": "f45346dc",
    "getBorrowBalance(address,address,address)": "93d9ec1d",
    "getBorrowRateFor(address,address)": "6ac97967",
    "getDepositBalance(address,address,address)": "43d54560",
    "getDepositRateFor(address,address)": "c381f29b",
    "payback(address,uint256,address)": "d5407a8a",
    "withdraw(address,uint256,address)": "69328dec"
  }
}