{
  "address": "0x910e5727f504B29894934B67FC4dF5891E360E2b",
  "abi": [
    {
      "inputs": [
        {
          "internalType": "address",
          "name": "_chief",
          "type": "address"
        }
      ],
      "stateMutability": "nonpayable",
      "type": "constructor"
    },
    {
      "inputs": [],
      "name": "Unauthorized",
      "type": "error"
    },
    {
      "inputs": [],
      "name": "ZeroAddress",
      "type": "error"
    },
    {
      "anonymous": false,
      "inputs": [
        {
          "indexed": false,
          "internalType": "address",
          "name": "vault",
          "type": "address"
        },
        {
          "indexed": false,
          "internalType": "address",
          "name": "asset",
          "type": "address"
        },
        {
          "indexed": false,
          "internalType": "bytes32",
          "name": "salt",
          "type": "bytes32"
        }
      ],
      "name": "VaultRegistered",
      "type": "event"
    },
    {
      "inputs": [],
      "name": "chief",
      "outputs": [
        {
          "internalType": "address",
          "name": "",
          "type": "address"
        }
      ],
      "stateMutability": "view",
      "type": "function"
    },
    {
      "inputs": [
        {
          "internalType": "bytes32",
          "name": "",
          "type": "bytes32"
        }
      ],
      "name": "configAddress",
      "outputs": [
        {
          "internalType": "address",
          "name": "",
          "type": "address"
        }
      ],
      "stateMutability": "view",
      "type": "function"
    },
    {
      "inputs": [
        {
          "internalType": "bytes",
          "name": "_deployData",
          "type": "bytes"
        }
      ],
      "name": "deployVault",
      "outputs": [
        {
          "internalType": "address",
          "name": "vault",
          "type": "address"
        }
      ],
      "stateMutability": "nonpayable",
      "type": "function"
    },
    {
      "inputs": [
        {
          "internalType": "address",
          "name": "asset",
          "type": "address"
        },
        {
          "internalType": "uint256",
          "name": "startIndex",
          "type": "uint256"
        },
        {
          "internalType": "uint256",
          "name": "count",
          "type": "uint256"
        }
      ],
      "name": "getVaults",
      "outputs": [
        {
          "internalType": "address[]",
          "name": "vaults",
          "type": "address[]"
        }
      ],
      "stateMutability": "view",
      "type": "function"
    },
    {
      "inputs": [
        {
          "internalType": "address",
          "name": "",
          "type": "address"
        },
        {
          "internalType": "uint256",
          "name": "",
          "type": "uint256"
        }
      ],
      "name": "vaultsByAsset",
      "outputs": [
        {
          "internalType": "address",
          "name": "",
          "type": "address"
        }
      ],
      "stateMutability": "view",
      "type": "function"
    },
    {
      "inputs": [
        {
          "internalType": "address",
          "name": "asset",
          "type": "address"
        }
      ],
      "name": "vaultsCount",
      "outputs": [
        {
          "internalType": "uint256",
          "name": "count",
          "type": "uint256"
        }
      ],
      "stateMutability": "view",
      "type": "function"
    }
  ],
  "transactionHash": "0x97d3ad2611ac132155a1c8b76869183481f6d2bf311d15eb4d9a2b7859abf04f",
  "args": [
    "0x03aA0d5A763763f3a53317F20B204D558A8040a2"
  ],
  "numDeployments": 1,
  "bytecode": {
    "object": "0x60a060405234801561001057600080fd5b5060405161572b38038061572b83398101604081905261002f91610069565b806001600160a01b0381166100575760405163d92e233d60e01b815260040160405180910390fd5b6001600160a01b031660805250610099565b60006020828403121561007b57600080fd5b81516001600160a01b038116811461009257600080fd5b9392505050565b6080516156696100c260003960008181610185015281816104ba015261055001526156696000f3fe60806040523480156200001157600080fd5b50600436106200007b5760003560e01c8063ce4c774e1162000056578063ce4c774e14620000fe578063f6ab6d991462000146578063ffd864d3146200017f57600080fd5b8063453131fa1462000080578063903f6a4714620000c1578063cb4cc73314620000e7575b600080fd5b620000976200009136600462000699565b620001a7565b60405173ffffffffffffffffffffffffffffffffffffffff90911681526020015b60405180910390f35b620000d8620000d2366004620006c8565b620001ed565b604051620000b8919062000700565b62000097620000f836600462000826565b6200030a565b620001376200010f366004620008ae565b73ffffffffffffffffffffffffffffffffffffffff1660009081526020819052604090205490565b604051908152602001620000b8565b6200009762000157366004620008d5565b60016020526000908152604090205473ffffffffffffffffffffffffffffffffffffffff1681565b620000977f000000000000000000000000000000000000000000000000000000000000000081565b60006020528160005260406000208181548110620001c457600080fd5b60009182526020909120015473ffffffffffffffffffffffffffffffffffffffff169150829050565b60608167ffffffffffffffff8111156200020b576200020b6200075c565b60405190808252806020026020018201604052801562000235578160200160208202803683370190505b50905060005b82811015620003025773ffffffffffffffffffffffffffffffffffffffff851660009081526020819052604090206200027582866200091e565b8154811062000288576200028862000939565b9060005260206000200160009054906101000a900473ffffffffffffffffffffffffffffffffffffffff16828281518110620002c857620002c862000939565b73ffffffffffffffffffffffffffffffffffffffff9092166020928302919091019091015280620002f98162000968565b9150506200023b565b509392505050565b60008060008084806020019051810190620003269190620009a3565b92509250925060008373ffffffffffffffffffffffffffffffffffffffff166306fdde036040518163ffffffff1660e01b8152600401600060405180830381865afa1580156200037a573d6000803e3d6000fd5b505050506040513d6000823e601f3d9081017fffffffffffffffffffffffffffffffffffffffffffffffffffffffffffffffe0168201604052620003c2919081019062000a2a565b905060008473ffffffffffffffffffffffffffffffffffffffff166395d89b416040518163ffffffff1660e01b8152600401600060405180830381865afa15801562000412573d6000803e3d6000fd5b505050506040513d6000823e601f3d9081017fffffffffffffffffffffffffffffffffffffffffffffffffffffffffffffffe01682016040526200045a919081019062000a2a565b905060008260405160200162000471919062000aaa565b604051602081830303815290604052905060008260405160200162000497919062000b18565b6040516020818303038152906040529050600089805190602001209050808888887f00000000000000000000000000000000000000000000000000000000000000008787604051620004e99062000665565b620004fa9695949392919062000bab565b8190604051809103906000f59050801580156200051b573d6000803e3d6000fd5b5098506200052b89898362000538565b5050505050505050919050565b3373ffffffffffffffffffffffffffffffffffffffff7f00000000000000000000000000000000000000000000000000000000000000001614620005a8576040517f82b4290000000000000000000000000000000000000000000000000000000000815260040160405180910390fd5b6000818152600160208181526040808420805473ffffffffffffffffffffffffffffffffffffffff8981167fffffffffffffffffffffffff00000000000000000000000000000000000000009283168117909355881680875286855283872080549687018155875295849020909401805490941681179093558051928352908201929092529081018290527f5660227e8947ffb4445cc521eeb44d200978894791562cc6b7293d91fa28d95e9060600160405180910390a1505050565b614a1c8062000c1883390190565b73ffffffffffffffffffffffffffffffffffffffff811681146200069657600080fd5b50565b60008060408385031215620006ad57600080fd5b8235620006ba8162000673565b946020939093013593505050565b600080600060608486031215620006de57600080fd5b8335620006eb8162000673565b95602085013595506040909401359392505050565b6020808252825182820181905260009190848201906040850190845b818110156200075057835173ffffffffffffffffffffffffffffffffffffffff16835292840192918401916001016200071c565b50909695505050505050565b7f4e487b7100000000000000000000000000000000000000000000000000000000600052604160045260246000fd5b604051601f82017fffffffffffffffffffffffffffffffffffffffffffffffffffffffffffffffe016810167ffffffffffffffff81118282101715620007d557620007d56200075c565b604052919050565b600067ffffffffffffffff821115620007fa57620007fa6200075c565b50601f017fffffffffffffffffffffffffffffffffffffffffffffffffffffffffffffffe01660200190565b6000602082840312156200083957600080fd5b813567ffffffffffffffff8111156200085157600080fd5b8201601f810184136200086357600080fd5b80356200087a6200087482620007dd565b6200078b565b8181528560208385010111156200089057600080fd5b81602084016020830137600091810160200191909152949350505050565b600060208284031215620008c157600080fd5b8135620008ce8162000673565b9392505050565b600060208284031215620008e857600080fd5b5035919050565b7f4e487b7100000000000000000000000000000000000000000000000000000000600052601160045260246000fd5b60008219821115620009345762000934620008ef565b500190565b7f4e487b7100000000000000000000000000000000000000000000000000000000600052603260045260246000fd5b60007fffffffffffffffffffffffffffffffffffffffffffffffffffffffffffffffff82036200099c576200099c620008ef565b5060010190565b600080600060608486031215620009b957600080fd5b8351620009c68162000673565b6020850151909350620009d98162000673565b6040850151909250620009ec8162000673565b809150509250925092565b60005b8381101562000a14578181015183820152602001620009fa565b8381111562000a24576000848401525b50505050565b60006020828403121562000a3d57600080fd5b815167ffffffffffffffff81111562000a5557600080fd5b8201601f8101841362000a6757600080fd5b805162000a786200087482620007dd565b81815285602083850101111562000a8e57600080fd5b62000aa1826020830160208601620009f7565b95945050505050565b7f46756a692d56322000000000000000000000000000000000000000000000000081526000825162000ae4816008850160208701620009f7565b7f20426f72726f77696e675661756c7420536861726573000000000000000000006008939091019283015250601e01919050565b7f666276000000000000000000000000000000000000000000000000000000000081526000825162000b52816003850160208701620009f7565b9190910160030192915050565b6000815180845262000b79816020860160208601620009f7565b601f017fffffffffffffffffffffffffffffffffffffffffffffffffffffffffffffffe0169290920160200192915050565b600073ffffffffffffffffffffffffffffffffffffffff80891683528088166020840152808716604084015280861660608401525060c0608083015262000bf660c083018562000b5f565b82810360a084015262000c0a818562000b5f565b999850505050505050505056fe6101a06040523480156200001257600080fd5b5060405162004a1c38038062004a1c833981016040819052620000359162000255565b858383838180604051806040016040528060018152602001603160f81b8152508484816003908162000068919062000398565b50600462000077828262000398565b5050825160208085019190912083518483012060e08290526101008190524660a0818152604080517f8b73c3c69bb8fe3d512ecc4cf759cc79239f7b179b0ffacaa9a75d522b39400f81880181905281830187905260608201869052608082019490945230818401528151808203909301835260c0019052805194019390932091935091906080523060c05261012052505050506001600160a01b0394851661016052505050811661014052600019600c55948516610180525050601080546001600160a01b03191692909316919091179091555050670a688906bd8b0000601155670b1a2bc2ec50000060125562000464565b80516001600160a01b03811681146200018357600080fd5b919050565b634e487b7160e01b600052604160045260246000fd5b600082601f830112620001b057600080fd5b81516001600160401b0380821115620001cd57620001cd62000188565b604051601f8301601f19908116603f01168101908282118183101715620001f857620001f862000188565b816040528381526020925086838588010111156200021557600080fd5b600091505b838210156200023957858201830151818301840152908201906200021a565b838211156200024b5760008385830101525b9695505050505050565b60008060008060008060c087890312156200026f57600080fd5b6200027a876200016b565b95506200028a602088016200016b565b94506200029a604088016200016b565b9350620002aa606088016200016b565b60808801519093506001600160401b0380821115620002c857600080fd5b620002d68a838b016200019e565b935060a0890151915080821115620002ed57600080fd5b50620002fc89828a016200019e565b9150509295509295509295565b600181811c908216806200031e57607f821691505b6020821081036200033f57634e487b7160e01b600052602260045260246000fd5b50919050565b601f8211156200039357600081815260208120601f850160051c810160208610156200036e5750805b601f850160051c820191505b818110156200038f578281556001016200037a565b5050505b505050565b81516001600160401b03811115620003b457620003b462000188565b620003cc81620003c5845462000309565b8462000345565b602080601f831160018114620004045760008415620003eb5750858301515b600019600386901b1c1916600185901b1785556200038f565b600085815260208120601f198616915b82811015620004355788860151825594840194600190910190840162000414565b5085821015620004545787850151600019600388901b60f8161c191681555b5050505050600190811b01905550565b60805160a05160c05160e05161010051610120516101405161016051610180516144916200058b600039600081816106fd01528181610fc401528181610fee01528181611020015281816116870152818161170e015281816123fb01528181612542015281816125840152818161296001528181612a9801528181612ba401528181612d100152612e160152600081816105150152818161087f01528181610eda01528181610f0c015281816118f401528181611aed015281816120fc0152818161212801528181612563015281816126f0015281816127e5015281816128450152818161293f01526129810152600061085601526000611f6201526000611fb101526000611f8c01526000611ee501526000611f0f01526000611f3901526144916000f3fe608060405234801561001057600080fd5b50600436106103ba5760003560e01c80637ecebe00116101f4578063c63d75b61161011a578063dd62ed3e116100ad578063ef8b30f71161007c578063ef8b30f714610778578063f341e22814610841578063fc7b9c1814610849578063ffd864d31461085157600080fd5b8063dd62ed3e146107f3578063e488d3ee14610806578063e76ed98614610819578063edc922a91461082c57600080fd5b8063d5164184116100e9578063d5164184146107b1578063d905777e146107c4578063db19b6a7146107d7578063dbd5edc7146107ea57600080fd5b8063c63d75b614610763578063c6e6f59214610778578063ce96cb771461078b578063d084b9af1461079e57600080fd5b806397f75dd911610192578063ae45d36e11610161578063ae45d36e14610721578063b3d7f6b91461072a578063b460af941461073d578063ba0876521461075057600080fd5b806397f75dd9146106c2578063a457c2d7146106d5578063a9059cbb146106e8578063a919802d146106fb57600080fd5b80638d33a725116101ce5780638d33a7251461068157806394bf804d1461069457806395d89b41146106a757806397a9d457146106af57600080fd5b80637ecebe00146106485780638446f9231461065b578063866512031461066e57600080fd5b80633644e515116102e45780635b987baa1161027757806370a082311161024657806370a08231146105e657806371e114301461060f5780637adbf973146106225780637dc0d1d01461063557600080fd5b80635b987baa146105a4578063645006ca146105b75780636bd76d24146105c05780636e553f65146105d357600080fd5b8063402d267d116102b3578063402d267d146105695780634239e1991461057e5780634cdad506146103ef578063509a55bb1461059157600080fd5b80633644e5151461050b57806338d52e0f14610513578063395093511461054d5780633a12c6da1461056057600080fd5b80631b98f6ac1161035c57806323b872dd1161032b57806323b872dd146104c7578063274f8885146104da5780632a80cda3146104e3578063313ce567146104f657600080fd5b80631b98f6ac146104535780631da8bf1014610468578063233ac0081461047b5780632394a26d146104b457600080fd5b8063095ea7b311610398578063095ea7b3146104025780630a28a47714610425578063152dc8d71461043857806318160ddd1461044b57600080fd5b806301e1d114146103bf57806306fdde03146103da57806307a2d13a146103ef575b600080fd5b6103c7610878565b6040519081526020015b60405180910390f35b6103e26108de565b6040516103d19190613d0e565b6103c76103fd366004613d41565b610970565b610415610410366004613d6f565b610983565b60405190151581526020016103d1565b6103c7610433366004613d41565b6109a3565b610415610446366004613d6f565b6109b0565b6002546103c7565b610466610461366004613dda565b610a93565b005b610466610476366004613ea2565b610b5d565b6103c7610489366004613f13565b6001600160a01b03918216600090815260056020908152604080832093909416825291909152205490565b6104156104c2366004613d6f565b610b75565b6104156104d5366004613f4c565b610baf565b6103c760125481565b6104666104f1366004613d41565b610bd5565b60125b60405160ff90911681526020016103d1565b6103c7610c11565b7f00000000000000000000000000000000000000000000000000000000000000005b6040516001600160a01b0390911681526020016103d1565b61041561055b366004613d6f565b610c1b565b6103c760115481565b6103c7610577366004613f8d565b50600c5490565b61041561058c366004613d6f565b610c2a565b6103c761059f366004613f8d565b610c36565b6104666105b2366004613ea2565b610c58565b6103c7600b5481565b6103c76105ce366004613f13565b610dbc565b6103c76105e1366004613faa565b610de9565b6103c76105f4366004613f8d565b6001600160a01b031660009081526020819052604090205490565b61046661061d366004613f8d565b610e63565b610466610630366004613f8d565b61107d565b601054610535906001600160a01b031681565b6103c7610656366004613f8d565b6110e3565b6103c7610669366004613d41565b611101565b61046661067c366004613d41565b61110e565b61041561068f366004613d6f565b611189565b6103c76106a2366004613faa565b611195565b6103e26111af565b6103c76106bd366004613f8d565b6111be565b600a54610535906001600160a01b031681565b6104156106e3366004613d6f565b6111c9565b6104156106f6366004613d6f565b6111d8565b7f0000000000000000000000000000000000000000000000000000000000000000610535565b6103c7600d5481565b6103c7610738366004613d41565b6111e6565b6103c761074b366004613fcf565b6111f3565b6103c761075e366004613fcf565b6112b8565b6103c7610771366004613f8d565b5060001990565b6103c7610786366004613d41565b61136c565b6103c7610799366004613f8d565b611379565b6103c76107ac366004613faa565b611384565b6103c76107bf366004613fcf565b611434565b6103c76107d2366004613f8d565b6114e8565b6104666107e5366004613d41565b6114fd565b6103c7600c5481565b6103c7610801366004613f13565b61156e565b6103c7610814366004613d41565b61159f565b610466610827366004613d41565b6115ac565b610834611622565b6040516103d19190614011565b6104f9611683565b6103c7611707565b6105357f000000000000000000000000000000000000000000000000000000000000000081565b60006108d97f00000000000000000000000000000000000000000000000000000000000000006040518060400160405280601181526020017f6765744465706f73697442616c616e6365000000000000000000000000000000815250611764565b905090565b6060600380546108ed9061405e565b80601f01602080910402602001604051908101604052809291908181526020018280546109199061405e565b80156109665780601f1061093b57610100808354040283529160200191610966565b820191906000526020600020905b81548152906001019060200180831161094957829003601f168201915b5050505050905090565b600061097d8260006118c2565b92915050565b600033610999818561099486610970565b61199e565b5060019392505050565b600061097d826001611ab3565b3360008181526005602090815260408083206001600160a01b038716845290915281205490919083811015610a525760405162461bcd60e51b815260206004820152602560248201527f45524332303a2064656372656173656420616c6c6f77616e63652062656c6f7760448201527f207a65726f00000000000000000000000000000000000000000000000000000060648201526084015b60405180910390fd5b6001600160a01b03808316600090815260056020908152604080832093891683529290522054610a88908390879087900361199e565b506001949350505050565b805160005b81811015610b0d5760006001600160a01b0316838281518110610abd57610abd6140ab565b60200260200101516001600160a01b031603610b05576040517f996aa3ce00000000000000000000000000000000000000000000000000000000815260040160405180910390fd5b600101610a98565b508151610b21906009906020850190613c50565b507f32e7fb34fed79bbb365c7c067731ee80348d07c9bb4a54d399d3c389c2fa9a2f82604051610b519190614011565b60405180910390a15050565b610b6c87878787878787611b6d565b50505050505050565b3360008181526005602090815260408083206001600160a01b03871684529091528120549091906109999082908690610994908790614109565b600033610bbd858285611cc5565b610bc8858585611cdd565b60019150505b9392505050565b600b8190556040518181527fb4ed0a1ef6754bd8de43894bd7e4c2fe602ba7a2a1d5b61f7113018c09e4c1f1906020015b60405180910390a150565b60006108d9611ed8565b6000610999836104c284610970565b6000610bce8383611fff565b6001600160a01b0381166000908152600e602052604081205461097d90611101565b83421115610ca85760405162461bcd60e51b815260206004820152601060248201527f4578706972656420646561646c696e65000000000000000000000000000000006044820152606401610a49565b60007ffdcf6aadd7cc7bc23e48366f2a276a0b759febae6efb52f5169a05e5f4595e6e888888610cd78c61203e565b6040805160208101969096526001600160a01b0394851690860152929091166060840152608083015260a082015260c0810186905260e0016040516020818303038152906040528051906020012090506000610d3282612066565b90506000610d42828787876120cf565b9050896001600160a01b0316816001600160a01b031614610da55760405162461bcd60e51b815260206004820152601160248201527f496e76616c6964207369676e61747572650000000000000000000000000000006044820152606401610a49565b610db08a8a8a61199e565b50505050505050505050565b6001600160a01b038083166000908152600660209081526040808320938516835292905290812054610bce565b6000610df4600c5490565b610dfc610878565b610e069085614109565b1180610e135750600b5483105b15610e4a576040517f7eb0313200000000000000000000000000000000000000000000000000000000815260040160405180910390fd5b6000610e558461136c565b9050610bce338486846120f7565b610e6c816121db565b610ea2576040517f996aa3ce00000000000000000000000000000000000000000000000000000000815260040160405180910390fd5b600a80547fffffffffffffffffffffffff0000000000000000000000000000000000000000166001600160a01b038316179055610fba7f0000000000000000000000000000000000000000000000000000000000000000600a546001600160a01b03166304a153ab7f00000000000000000000000000000000000000000000000000000000000000005b6040517fffffffff0000000000000000000000000000000000000000000000000000000060e084901b1681526001600160a01b039091166004820152306024820152604401602060405180830381865afa158015610f8e573d6000803e3d6000fd5b505050506040513d601f19601f82011682018060405250810190610fb29190614121565b600019612231565b6001600160a01b037f00000000000000000000000000000000000000000000000000000000000000001615611044576110447f0000000000000000000000000000000000000000000000000000000000000000600a546001600160a01b03166304a153ab7f0000000000000000000000000000000000000000000000000000000000000000610f2c565b6040516001600160a01b03821681527fc89d285be92e3411873a944fedd41eac9571d1863e95ad42e201990d602fe3fa90602001610c06565b601080547fffffffffffffffffffffffff0000000000000000000000000000000000000000166001600160a01b0383169081179091556040519081527f0e05ae75e8b926552cf6fcd744d19f422561e3ced1e426868730852702dbe41890602001610c06565b6001600160a01b03811660009081526007602052604081205461097d565b600061097d8260006123df565b80158061111d5750600b548111155b15611154576040517f996aa3ce00000000000000000000000000000000000000000000000000000000815260040160405180910390fd5b600c8190556040518181527f2bc390be6d76c38a7a1e46eb6629b370c4cd792e13afd099527cbce28c5ecf7790602001610c06565b6000610bce8383612457565b6000806111a1846111e6565b9050610bce338483876120f7565b6060600480546108ed9061405e565b600061097d8261252a565b60006109998361044684610970565b600033610999818585611cdd565b600061097d8260016118c2565b6000336001600160a01b03831681146112195761121983826112148861136c565b611cc5565b84600003611253576040517f4116260100000000000000000000000000000000000000000000000000000000815260040160405180910390fd5b61125c83611379565b851115611295576040517fd4fbc29a00000000000000000000000000000000000000000000000000000000815260040160405180910390fd5b60006112a0866109a3565b90506112af82868689856127d6565b95945050505050565b6000336001600160a01b03831681146112d6576112d6838287611cc5565b84600003611310576040517f849309bc00000000000000000000000000000000000000000000000000000000815260040160405180910390fd5b611319836114e8565b851115611352576040517fcb4135bb00000000000000000000000000000000000000000000000000000000815260040160405180910390fd5b600061135d86610970565b90506112af338686848a6127d6565b600061097d826000611ab3565b600061097d826128d2565b6000826000036113c0576040517ff693f25600000000000000000000000000000000000000000000000000000000815260040160405180910390fd5b6001600160a01b0382166000908152600e60205260409020546113e290611101565b83111561141b576040517f3d22dbeb00000000000000000000000000000000000000000000000000000000815260040160405180910390fd5b60006114268461159f565b9050610bce33848684612ba2565b6000336001600160a01b038316811461145257611452838287612c76565b8460000361148c576040517f14cffb1e00000000000000000000000000000000000000000000000000000000815260040160405180910390fd5b611495836111be565b8511156114ce576040517f43c8004f00000000000000000000000000000000000000000000000000000000815260040160405180910390fd5b60006114d98661159f565b90506112af8286868985612d02565b600061097d6114f6836128d2565b6000611ab3565b601154811015611539576040517f996aa3ce00000000000000000000000000000000000000000000000000000000815260040160405180910390fd5b60128190556040518181527f738f8cc962e7055c695eb21a9137d41b7d776e2cc9578cbe1c9631ded79a427990602001610c06565b6001600160a01b038083166000908152600560209081526040808320938516835292905290812054610bce9061136c565b600061097d826000612de4565b662386f26fc100008110156115ed576040517f996aa3ce00000000000000000000000000000000000000000000000000000000815260040160405180910390fd5b60118190556040518181527ffe69560fa196f8ce9df2f8ced74d2345c437d46184b82bbdef5c23222c81bdea90602001610c06565b6060600980548060200260200160405190810160405280929190818152602001828054801561096657602002820191906000526020600020905b81546001600160a01b0316815260019091019060200180831161165c575050505050905090565b60007f00000000000000000000000000000000000000000000000000000000000000006001600160a01b031663313ce5676040518163ffffffff1660e01b8152600401602060405180830381865afa1580156116e3573d6000803e3d6000fd5b505050506040513d601f19601f820116820180604052508101906108d9919061413e565b60006108d97f00000000000000000000000000000000000000000000000000000000000000006040518060400160405280601081526020017f676574426f72726f7742616c616e6365000000000000000000000000000000008152505b60095460405160009190829061177e90859060200161415b565b60408051601f19818403018152908290526001600160a01b0387166024830152306044830181905260648301529060840160408051601f1981840301815290829052916117ca9161419c565b6040519081900390206020820180517bffffffffffffffffffffffffffffffffffffffffffffffffffffffff167fffffffff000000000000000000000000000000000000000000000000000000009092169190911790529050606060005b838110156118b857611899836040518060400160405280601581526020017f3a2062616c616e63652063616c6c206661696c656400000000000000000000008152506009848154811061187d5761187d6140ab565b6000918252602090912001546001600160a01b03169190612e72565b91506118a4826141b8565b6118ae9086614109565b9450600101611828565b5050505092915050565b6000806118ce60025490565b905080156118ef576118ea6118e1610878565b85908386612eea565b611996565b6119967f00000000000000000000000000000000000000000000000000000000000000006001600160a01b031663313ce5676040518163ffffffff1660e01b8152600401602060405180830381865afa158015611950573d6000803e3d6000fd5b505050506040513d601f19601f82011682018060405250810190611974919061413e565b61197f90600a6142c0565b60125b61198d90600a6142c0565b86919086612eea565b949350505050565b6001600160a01b0383166119f45760405162461bcd60e51b815260206004820152600c60248201527f5a65726f206164647265737300000000000000000000000000000000000000006044820152606401610a49565b6001600160a01b038216611a4a5760405162461bcd60e51b815260206004820152600c60248201527f5a65726f206164647265737300000000000000000000000000000000000000006044820152606401610a49565b6001600160a01b038381166000818152600560209081526040808320948716808452948252918290208590558151938452830184905290917f7361992bf16bfdca3c21740dec888a3f2d9024c18cd5e8a80b555251ebcdc00e91015b60405180910390a2505050565b600080611abf60025490565b9050831580611acc575080155b611adc576118ea8161198d610878565b611996611aeb6012600a6142c0565b7f00000000000000000000000000000000000000000000000000000000000000006001600160a01b031663313ce5676040518163ffffffff1660e01b8152600401602060405180830381865afa158015611b49573d6000803e3d6000fd5b505050506040513d601f19601f82011682018060405250810190611982919061413e565b83421115611bbd5760405162461bcd60e51b815260206004820152601060248201527f4578706972656420646561646c696e65000000000000000000000000000000006044820152606401610a49565b60007fd67cb09e55b62944fd984ba5e925eef80308cef31f020a8b69ce81715dc12f93888888611bec8c61203e565b6040805160208101969096526001600160a01b0394851690860152929091166060840152608083015260a082015260c0810186905260e0016040516020818303038152906040528051906020012090506000611c4782612066565b90506000611c57828787876120cf565b9050896001600160a01b0316816001600160a01b031614611cba5760405162461bcd60e51b815260206004820152601160248201527f496e76616c6964207369676e61747572650000000000000000000000000000006044820152606401610a49565b610db08a8a8a612f3b565b611cd88383611cd384610970565b613047565b505050565b6001600160a01b038316611d595760405162461bcd60e51b815260206004820152602560248201527f45524332303a207472616e736665722066726f6d20746865207a65726f20616460448201527f64726573730000000000000000000000000000000000000000000000000000006064820152608401610a49565b6001600160a01b038216611dd55760405162461bcd60e51b815260206004820152602360248201527f45524332303a207472616e7366657220746f20746865207a65726f206164647260448201527f65737300000000000000000000000000000000000000000000000000000000006064820152608401610a49565b611de08383836130d3565b6001600160a01b03831660009081526020819052604090205481811015611e6f5760405162461bcd60e51b815260206004820152602660248201527f45524332303a207472616e7366657220616d6f756e742065786365656473206260448201527f616c616e636500000000000000000000000000000000000000000000000000006064820152608401610a49565b6001600160a01b03848116600081815260208181526040808320878703905593871680835291849020805487019055925185815290927fddf252ad1be2c89b69c2b068fc378daa952ba7f163c4a11628f55a4df523b3ef91015b60405180910390a35b50505050565b6000306001600160a01b037f000000000000000000000000000000000000000000000000000000000000000016148015611f3157507f000000000000000000000000000000000000000000000000000000000000000046145b15611f5b57507f000000000000000000000000000000000000000000000000000000000000000090565b50604080517f00000000000000000000000000000000000000000000000000000000000000006020808301919091527f0000000000000000000000000000000000000000000000000000000000000000828401527f000000000000000000000000000000000000000000000000000000000000000060608301524660808301523060a0808401919091528351808403909101815260c0909201909252805191012090565b3360008181526006602090815260408083206001600160a01b03871684529091528120549091906109999082908690612039908790614109565b612f3b565b6001600160a01b03811660009081526007602052604090208054600181018255905b50919050565b600061097d612073611ed8565b836040517f19010000000000000000000000000000000000000000000000000000000000006020820152602281018390526042810182905260009060620160405160208183030381529060405280519060200120905092915050565b60008060006120e08787878761313a565b915091506120ed816131fe565b5095945050505050565b6121237f0000000000000000000000000000000000000000000000000000000000000000853085613366565b6121837f0000000000000000000000000000000000000000000000000000000000000000836040518060400160405280600781526020017f6465706f736974000000000000000000000000000000000000000000000000008152506133b7565b61218d83826134ac565b826001600160a01b0316846001600160a01b03167fdcbc1c05240f31ff3ad067ef1ee35ce4997762752e3a095284754544f4c709d78484604051611ec9929190918252602082015260400190565b600954600090815b8181101561222a57600981815481106121fe576121fe6140ab565b6000918252602090912001546001600160a01b039081169085160361222257600192505b6001016121e3565b5050919050565b8015806122c457506040517fdd62ed3e0000000000000000000000000000000000000000000000000000000081523060048201526001600160a01b03838116602483015284169063dd62ed3e90604401602060405180830381865afa15801561229e573d6000803e3d6000fd5b505050506040513d601f19601f820116820180604052508101906122c291906142cf565b155b6123365760405162461bcd60e51b815260206004820152603660248201527f5361666545524332303a20617070726f76652066726f6d206e6f6e2d7a65726f60448201527f20746f206e6f6e2d7a65726f20616c6c6f77616e6365000000000000000000006064820152608401610a49565b6040516001600160a01b038316602482015260448101829052611cd89084907f095ea7b300000000000000000000000000000000000000000000000000000000906064015b60408051601f198184030181529190526020810180517bffffffffffffffffffffffffffffffffffffffffffffffffffffffff167fffffffff0000000000000000000000000000000000000000000000000000000090931692909217909152613577565b600d5460009080156123f6576118ea6118e1611707565b6119967f00000000000000000000000000000000000000000000000000000000000000006001600160a01b031663313ce5676040518163ffffffff1660e01b8152600401602060405180830381865afa158015611950573d6000803e3d6000fd5b3360008181526005602090815260408083206001600160a01b0387168452909152812054909190838110156124f45760405162461bcd60e51b815260206004820152602560248201527f45524332303a2064656372656173656420616c6c6f77616e63652062656c6f7760448201527f207a65726f0000000000000000000000000000000000000000000000000000006064820152608401610a49565b6001600160a01b03808316600090815260066020908152604080832093891683529290522054610a889083908790879003612f3b565b60105460009081906001600160a01b031663721adea77f00000000000000000000000000000000000000000000000000000000000000007f00000000000000000000000000000000000000000000000000000000000000007f00000000000000000000000000000000000000000000000000000000000000006001600160a01b031663313ce5676040518163ffffffff1660e01b8152600401602060405180830381865afa1580156125e0573d6000803e3d6000fd5b505050506040513d601f19601f82011682018060405250810190612604919061413e565b6040517fffffffff0000000000000000000000000000000000000000000000000000000060e086901b1681526001600160a01b03938416600482015292909116602483015260ff166044820152606401602060405180830381865afa158015612671573d6000803e3d6000fd5b505050506040513d601f19601f8201168201806040525081019061269591906142cf565b905060006126b8846001600160a01b031660009081526020819052604090205490565b905060006126c582610970565b6001600160a01b0386166000908152600e60205260408120549192506126ea82611101565b905060007f00000000000000000000000000000000000000000000000000000000000000006001600160a01b031663313ce5676040518163ffffffff1660e01b8152600401602060405180830381865afa15801561274c573d6000803e3d6000fd5b505050506040513d601f19601f82011682018060405250810190612770919061413e565b61277b90600a6142c0565b61278d90670de0b6b3a76400006142e8565b866011548661279c91906142e8565b6127a691906142e8565b6127b09190614336565b90508181116127c05760006127ca565b6127ca8282614371565b98975050505050505050565b6127e0838261365c565b6128407f0000000000000000000000000000000000000000000000000000000000000000836040518060400160405280600881526020017f77697468647261770000000000000000000000000000000000000000000000008152506133b7565b61286b7f000000000000000000000000000000000000000000000000000000000000000085846137d1565b826001600160a01b0316846001600160a01b0316866001600160a01b03167ffbde797d201c681b91056529119e0b02407c7bb96a4a2c75c01fc9667232c8db85856040516128c3929190918252602082015260400190565b60405180910390a45050505050565b6001600160a01b0381166000908152600e602052604081205480820361291b576129146103fd846001600160a01b031660009081526020819052604090205490565b9150612060565b600061292682611101565b6010549091506000906001600160a01b031663721adea77f00000000000000000000000000000000000000000000000000000000000000007f00000000000000000000000000000000000000000000000000000000000000007f00000000000000000000000000000000000000000000000000000000000000006001600160a01b031663313ce5676040518163ffffffff1660e01b8152600401602060405180830381865afa1580156129dd573d6000803e3d6000fd5b505050506040513d601f19601f82011682018060405250810190612a01919061413e565b6040517fffffffff0000000000000000000000000000000000000000000000000000000060e086901b1681526001600160a01b03938416600482015292909116602483015260ff166044820152606401602060405180830381865afa158015612a6e573d6000803e3d6000fd5b505050506040513d601f19601f82011682018060405250810190612a9291906142cf565b905060007f00000000000000000000000000000000000000000000000000000000000000006001600160a01b031663313ce5676040518163ffffffff1660e01b8152600401602060405180830381865afa158015612af4573d6000803e3d6000fd5b505050506040513d601f19601f82011682018060405250810190612b18919061413e565b612b2390600a6142c0565b601154612b3091906142e8565b82612b4385670de0b6b3a76400006142e8565b612b4d91906142e8565b612b579190614336565b90506000612b7d6103fd886001600160a01b031660009081526020819052604090205490565b9050818111612b8d576000612b97565b612b978282614371565b979650505050505050565b7f0000000000000000000000000000000000000000000000000000000000000000612bcf81863086613366565b612c0f81846040518060400160405280600781526020017f7061796261636b000000000000000000000000000000000000000000000000008152506133b7565b612c19848361381a565b836001600160a01b0316856001600160a01b03167ff1cdcfeb4ff4c8461376be772c144deae8c64497e45846d104284820f8e8cfef8585604051612c67929190918252602082015260400190565b60405180910390a35050505050565b6001600160a01b038084166000908152600660209081526040808320938616835292905220546000198114611ed25781811015612cf55760405162461bcd60e51b815260206004820152601c60248201527f496e73756666696369656e7420626f72726f77416c6c6f77616e6365000000006044820152606401610a49565b611ed28484848403612f3b565b612d0c8382613912565b60007f00000000000000000000000000000000000000000000000000000000000000009050612d7181846040518060400160405280600681526020017f626f72726f7700000000000000000000000000000000000000000000000000008152506133b7565b612d7c8186856137d1565b836001600160a01b0316856001600160a01b0316876001600160a01b03167f96558a334f4759f0e7c423d68c84721860bd8fbf94ddc4e55158ecb125ad04b58686604051612dd4929190918252602082015260400190565b60405180910390a4505050505050565b600d54600090831580612df5575080155b612e05576118ea8161198d611707565b611996612e146012600a6142c0565b7f00000000000000000000000000000000000000000000000000000000000000006001600160a01b031663313ce5676040518163ffffffff1660e01b8152600401602060405180830381865afa158015611b49573d6000803e3d6000fd5b6060600080856001600160a01b031685604051612e8f919061419c565b600060405180830381855afa9150503d8060008114612eca576040519150601f19603f3d011682016040523d82523d6000602084013e612ecf565b606091505b5091509150612ee0868383876139b0565b9695505050505050565b600080612ef8868686613a29565b90506001836002811115612f0e57612f0e614388565b148015612f2b575060008480612f2657612f26614307565b868809115b156112af57612ee0600182614109565b6001600160a01b038316612f915760405162461bcd60e51b815260206004820152600c60248201527f5a65726f206164647265737300000000000000000000000000000000000000006044820152606401610a49565b6001600160a01b038216612fe75760405162461bcd60e51b815260206004820152600c60248201527f5a65726f206164647265737300000000000000000000000000000000000000006044820152606401610a49565b6001600160a01b038381166000818152600660209081526040808320948716808452948252918290208590558151938452830184905290917fc3c1215b41d54142382d54a05fb991007165ae91bcb1879bac8b290d9111aaf49101611aa6565b6001600160a01b038381166000908152600560209081526040808320938616835292905220546000198114611ed257818110156130c65760405162461bcd60e51b815260206004820152601e60248201527f496e73756666696369656e74207769746864726177416c6c6f77616e636500006044820152606401610a49565b611ed2848484840361199e565b6001600160a01b03831615611cd8576130eb836114e8565b811115611cd85760405162461bcd60e51b815260206004820152601660248201527f5472616e73666572206d6f7265207468616e206d6178000000000000000000006044820152606401610a49565b6000807f7fffffffffffffffffffffffffffffff5d576e7357a4501ddfe92f46681b20a083111561317157506000905060036131f5565b6040805160008082526020820180845289905260ff881692820192909252606081018690526080810185905260019060a0016020604051602081039080840390855afa1580156131c5573d6000803e3d6000fd5b5050604051601f1901519150506001600160a01b0381166131ee576000600192509250506131f5565b9150600090505b94509492505050565b600081600481111561321257613212614388565b0361321a5750565b600181600481111561322e5761322e614388565b0361327b5760405162461bcd60e51b815260206004820152601860248201527f45434453413a20696e76616c6964207369676e617475726500000000000000006044820152606401610a49565b600281600481111561328f5761328f614388565b036132dc5760405162461bcd60e51b815260206004820152601f60248201527f45434453413a20696e76616c6964207369676e6174757265206c656e677468006044820152606401610a49565b60038160048111156132f0576132f0614388565b036133635760405162461bcd60e51b815260206004820152602260248201527f45434453413a20696e76616c6964207369676e6174757265202773272076616c60448201527f75650000000000000000000000000000000000000000000000000000000000006064820152608401610a49565b50565b6040516001600160a01b0380851660248301528316604482015260648101829052611ed29085907f23b872dd000000000000000000000000000000000000000000000000000000009060840161237b565b6000816040516020016133ca91906143b7565b60408051601f19818403018152908290526001600160a01b0386166024830152604482018590523060648301529060840160408051601f1981840301815290829052916134169161419c565b60405180910390207bffffffffffffffffffffffffffffffffffffffffffffffffffffffff19166020820180517bffffffffffffffffffffffffffffffffffffffffffffffffffffffff838183161783525050505090506134a5818360405160200161348291906143f8565b60408051601f19818403018152919052600a546001600160a01b03169190613ad8565b5050505050565b6001600160a01b0382166135025760405162461bcd60e51b815260206004820152601f60248201527f45524332303a206d696e7420746f20746865207a65726f2061646472657373006044820152606401610a49565b61350e600083836130d3565b80600260008282546135209190614109565b90915550506001600160a01b038216600081815260208181526040808320805486019055518481527fddf252ad1be2c89b69c2b068fc378daa952ba7f163c4a11628f55a4df523b3ef910160405180910390a35050565b60006135cc826040518060400160405280602081526020017f5361666545524332303a206c6f772d6c6576656c2063616c6c206661696c6564815250856001600160a01b0316613b309092919063ffffffff16565b805190915015611cd857808060200190518101906135ea9190614439565b611cd85760405162461bcd60e51b815260206004820152602a60248201527f5361666545524332303a204552433230206f7065726174696f6e20646964206e60448201527f6f742073756363656564000000000000000000000000000000000000000000006064820152608401610a49565b6001600160a01b0382166136d85760405162461bcd60e51b815260206004820152602160248201527f45524332303a206275726e2066726f6d20746865207a65726f2061646472657360448201527f73000000000000000000000000000000000000000000000000000000000000006064820152608401610a49565b6136e4826000836130d3565b6001600160a01b038216600090815260208190526040902054818110156137735760405162461bcd60e51b815260206004820152602260248201527f45524332303a206275726e20616d6f756e7420657863656564732062616c616e60448201527f63650000000000000000000000000000000000000000000000000000000000006064820152608401610a49565b6001600160a01b0383166000818152602081815260408083208686039055600280548790039055518581529192917fddf252ad1be2c89b69c2b068fc378daa952ba7f163c4a11628f55a4df523b3ef910160405180910390a3505050565b6040516001600160a01b038316602482015260448101829052611cd89084907fa9059cbb000000000000000000000000000000000000000000000000000000009060640161237b565b6001600160a01b0382166138705760405162461bcd60e51b815260206004820152601860248201527f4d696e7420746f20746865207a65726f206164647265737300000000000000006044820152606401610a49565b6001600160a01b0382166000908152600e6020526040902054818110156138d95760405162461bcd60e51b815260206004820152601b60248201527f4275726e20616d6f756e7420657863656564732062616c616e636500000000006044820152606401610a49565b6001600160a01b0383166000908152600e602052604081208383039055600d8054849290613908908490614371565b9091555050505050565b6001600160a01b0382166139685760405162461bcd60e51b815260206004820152601860248201527f4d696e7420746f20746865207a65726f206164647265737300000000000000006044820152606401610a49565b80600d600082825461397a9190614109565b90915550506001600160a01b0382166000908152600e6020526040812080548392906139a7908490614109565b90915550505050565b60608315613a1f578251600003613a18576001600160a01b0385163b613a185760405162461bcd60e51b815260206004820152601d60248201527f416464726573733a2063616c6c20746f206e6f6e2d636f6e74726163740000006044820152606401610a49565b5081611996565b6119968383613b3f565b6000808060001985870985870292508281108382030391505080600003613a6357838281613a5957613a59614307565b0492505050610bce565b808411613a6f57600080fd5b60008486880960026001871981018816978890046003810283188082028403028082028403028082028403028082028403028082028403029081029092039091026000889003889004909101858311909403939093029303949094049190911702949350505050565b6060600080856001600160a01b031685604051613af5919061419c565b600060405180830381855af49150503d8060008114612eca576040519150601f19603f3d011682016040523d82523d6000602084013e612ecf565b60606119968484600085613b69565b815115613b4f5781518083602001fd5b8060405162461bcd60e51b8152600401610a499190613d0e565b606082471015613be15760405162461bcd60e51b815260206004820152602660248201527f416464726573733a20696e73756666696369656e742062616c616e636520666f60448201527f722063616c6c00000000000000000000000000000000000000000000000000006064820152608401610a49565b600080866001600160a01b03168587604051613bfd919061419c565b60006040518083038185875af1925050503d8060008114613c3a576040519150601f19603f3d011682016040523d82523d6000602084013e613c3f565b606091505b5091509150612b97878383876139b0565b828054828255906000526020600020908101928215613cbd579160200282015b82811115613cbd57825182547fffffffffffffffffffffffff0000000000000000000000000000000000000000166001600160a01b03909116178255602090920191600190910190613c70565b50613cc9929150613ccd565b5090565b5b80821115613cc95760008155600101613cce565b60005b83811015613cfd578181015183820152602001613ce5565b83811115611ed25750506000910152565b6020815260008251806020840152613d2d816040850160208701613ce2565b601f01601f19169190910160400192915050565b600060208284031215613d5357600080fd5b5035919050565b6001600160a01b038116811461336357600080fd5b60008060408385031215613d8257600080fd5b8235613d8d81613d5a565b946020939093013593505050565b7f4e487b7100000000000000000000000000000000000000000000000000000000600052604160045260246000fd5b8035613dd581613d5a565b919050565b60006020808385031215613ded57600080fd5b823567ffffffffffffffff80821115613e0557600080fd5b818501915085601f830112613e1957600080fd5b813581811115613e2b57613e2b613d9b565b8060051b604051601f19603f83011681018181108582111715613e5057613e50613d9b565b604052918252848201925083810185019188831115613e6e57600080fd5b938501935b828510156127ca57613e8485613dca565b84529385019392850192613e73565b60ff8116811461336357600080fd5b600080600080600080600060e0888a031215613ebd57600080fd5b8735613ec881613d5a565b96506020880135613ed881613d5a565b955060408801359450606088013593506080880135613ef681613e93565b9699959850939692959460a0840135945060c09093013592915050565b60008060408385031215613f2657600080fd5b8235613f3181613d5a565b91506020830135613f4181613d5a565b809150509250929050565b600080600060608486031215613f6157600080fd5b8335613f6c81613d5a565b92506020840135613f7c81613d5a565b929592945050506040919091013590565b600060208284031215613f9f57600080fd5b8135610bce81613d5a565b60008060408385031215613fbd57600080fd5b823591506020830135613f4181613d5a565b600080600060608486031215613fe457600080fd5b833592506020840135613ff681613d5a565b9150604084013561400681613d5a565b809150509250925092565b6020808252825182820181905260009190848201906040850190845b818110156140525783516001600160a01b03168352928401929184019160010161402d565b50909695505050505050565b600181811c9082168061407257607f821691505b602082108103612060577f4e487b7100000000000000000000000000000000000000000000000000000000600052602260045260246000fd5b7f4e487b7100000000000000000000000000000000000000000000000000000000600052603260045260246000fd5b7f4e487b7100000000000000000000000000000000000000000000000000000000600052601160045260246000fd5b6000821982111561411c5761411c6140da565b500190565b60006020828403121561413357600080fd5b8151610bce81613d5a565b60006020828403121561415057600080fd5b8151610bce81613e93565b6000825161416d818460208701613ce2565b7f28616464726573732c616464726573732c616464726573732900000000000000920191825250601901919050565b600082516141ae818460208701613ce2565b9190910192915050565b805160208083015191908110156120605760001960209190910360031b1b16919050565b600181815b808511156142175781600019048211156141fd576141fd6140da565b8085161561420a57918102915b93841c93908002906141e1565b509250929050565b60008261422e5750600161097d565b8161423b5750600061097d565b8160018114614251576002811461425b57614277565b600191505061097d565b60ff84111561426c5761426c6140da565b50506001821b61097d565b5060208310610133831016604e8410600b841016171561429a575081810a61097d565b6142a483836141dc565b80600019048211156142b8576142b86140da565b029392505050565b6000610bce60ff84168361421f565b6000602082840312156142e157600080fd5b5051919050565b6000816000190483118215151615614302576143026140da565b500290565b7f4e487b7100000000000000000000000000000000000000000000000000000000600052601260045260246000fd5b60008261436c577f4e487b7100000000000000000000000000000000000000000000000000000000600052601260045260246000fd5b500490565b600082821015614383576143836140da565b500390565b7f4e487b7100000000000000000000000000000000000000000000000000000000600052602160045260246000fd5b600082516143c9818460208701613ce2565b7f28616464726573732c75696e743235362c616464726573732900000000000000920191825250601901919050565b6000825161440a818460208701613ce2565b7f3a2064656c65676174652063616c6c206661696c656400000000000000000000920191825250601601919050565b60006020828403121561444b57600080fd5b81518015158114610bce57600080fdfea2646970667358221220cdfcac33c0d3a98ec7584890290921d1594056869c25cc69142e4c9a15ebe75864736f6c634300080f0033a264697066735822122066996724039da3d282a8d8798cbcf2039635a2eee1ab09bab5ad581016f8705e64736f6c634300080f0033",
    "linkReferences": {}
  },
  "methodIdentifiers": {
    "chief()": "ffd864d3",
    "configAddress(bytes32)": "f6ab6d99",
    "deployVault(bytes)": "cb4cc733",
    "getVaults(address,uint256,uint256)": "903f6a47",
    "vaultsByAsset(address,uint256)": "453131fa",
    "vaultsCount(address)": "ce4c774e"
  }
}