{
  "address": "0x03aA0d5A763763f3a53317F20B204D558A8040a2",
  "abi": [
    {
      "inputs": [],
      "name": "NotAllowed",
      "type": "error"
    },
    {
      "anonymous": false,
      "inputs": [
        {
          "indexed": true,
          "internalType": "address",
          "name": "factory",
          "type": "address"
        }
      ],
      "name": "AddToAllowed",
      "type": "event"
    },
    {
      "anonymous": false,
      "inputs": [
        {
          "indexed": true,
          "internalType": "address",
          "name": "factory",
          "type": "address"
        },
        {
          "indexed": true,
          "internalType": "address",
          "name": "vault",
          "type": "address"
        },
        {
          "indexed": false,
          "internalType": "bytes",
          "name": "deployData",
          "type": "bytes"
        }
      ],
      "name": "DeployVault",
      "type": "event"
    },
    {
      "anonymous": false,
      "inputs": [
        {
          "indexed": true,
          "internalType": "address",
          "name": "previousOwner",
          "type": "address"
        },
        {
          "indexed": true,
          "internalType": "address",
          "name": "newOwner",
          "type": "address"
        }
      ],
      "name": "OwnershipTransferred",
      "type": "event"
    },
    {
      "anonymous": false,
      "inputs": [
        {
          "indexed": true,
          "internalType": "address",
          "name": "factory",
          "type": "address"
        }
      ],
      "name": "RemoveFromAllowed",
      "type": "event"
    },
    {
      "inputs": [
        {
          "internalType": "address",
          "name": "_factory",
          "type": "address"
        }
      ],
      "name": "addToAllowed",
      "outputs": [],
      "stateMutability": "nonpayable",
      "type": "function"
    },
    {
      "inputs": [
        {
          "internalType": "address",
          "name": "",
          "type": "address"
        }
      ],
      "name": "allowedFactories",
      "outputs": [
        {
          "internalType": "bool",
          "name": "",
          "type": "bool"
        }
      ],
      "stateMutability": "view",
      "type": "function"
    },
    {
      "inputs": [
        {
          "internalType": "address",
          "name": "_factory",
          "type": "address"
        },
        {
          "internalType": "bytes",
          "name": "_deployData",
          "type": "bytes"
        }
      ],
      "name": "deployVault",
      "outputs": [
        {
          "internalType": "address",
          "name": "vault",
          "type": "address"
        }
      ],
      "stateMutability": "nonpayable",
      "type": "function"
    },
    {
      "inputs": [],
      "name": "owner",
      "outputs": [
        {
          "internalType": "address",
          "name": "",
          "type": "address"
        }
      ],
      "stateMutability": "view",
      "type": "function"
    },
    {
      "inputs": [
        {
          "internalType": "address",
          "name": "_factory",
          "type": "address"
        }
      ],
      "name": "removeFromAllowed",
      "outputs": [],
      "stateMutability": "nonpayable",
      "type": "function"
    },
    {
      "inputs": [],
      "name": "renounceOwnership",
      "outputs": [],
      "stateMutability": "nonpayable",
      "type": "function"
    },
    {
      "inputs": [
        {
          "internalType": "address",
          "name": "newOwner",
          "type": "address"
        }
      ],
      "name": "transferOwnership",
      "outputs": [],
      "stateMutability": "nonpayable",
      "type": "function"
    },
    {
      "inputs": [
        {
          "internalType": "address",
          "name": "",
          "type": "address"
        }
      ],
      "name": "vaults",
      "outputs": [
        {
          "internalType": "bool",
          "name": "",
          "type": "bool"
        }
      ],
      "stateMutability": "view",
      "type": "function"
    }
  ],
  "transactionHash": "0x8a64ca10642b5cd67708c9b31106ea37f109df1237ab6e99ab59cdcf69a46064",
  "args": [],
  "numDeployments": 1,
  "bytecode": {
    "object": "0x608060405234801561001057600080fd5b5061001a3361001f565b61006f565b600080546001600160a01b038381166001600160a01b0319831681178455604051919092169283917f8be0079c531659141344cd1fd0a4f28419497f9722a3daafe3b4186f6b6457e09190a35050565b6107398061007e6000396000f3fe608060405234801561001057600080fd5b50600436106100885760003560e01c8063968cbade1161005b578063968cbade14610101578063a622ee7c14610114578063cbc5ac0114610147578063f2fde38b1461016a57600080fd5b8063715018a61461008d5780638244f99f146100975780638da5cb5b146100aa5780639666a522146100ee575b600080fd5b61009561017d565b005b6100956100a53660046105f0565b610191565b60005473ffffffffffffffffffffffffffffffffffffffff165b60405173ffffffffffffffffffffffffffffffffffffffff90911681526020015b60405180910390f35b6100956100fc3660046105f0565b610210565b6100c461010f366004610614565b61028c565b6101376101223660046105f0565b60016020526000908152604090205460ff1681565b60405190151581526020016100e5565b6101376101553660046105f0565b60026020526000908152604090205460ff1681565b6100956101783660046105f0565b61041c565b6101856104d8565b61018f6000610559565b565b6101996104d8565b73ffffffffffffffffffffffffffffffffffffffff811660008181526002602052604080822080547fffffffffffffffffffffffffffffffffffffffffffffffffffffffffffffff00166001179055517fdcedbed6346b257055a93561cdfb8dc2313ae58e1e738937bdeaa805fe6d856e9190a250565b6102186104d8565b73ffffffffffffffffffffffffffffffffffffffff811660008181526002602052604080822080547fffffffffffffffffffffffffffffffffffffffffffffffffffffffffffffff00169055517f78b5b53b8fbab696f75f8823f65fe9196dc207674313fdaa43be9db586058dad9190a250565b73ffffffffffffffffffffffffffffffffffffffff831660009081526002602052604081205460ff166102eb576040517f3d693ada00000000000000000000000000000000000000000000000000000000815260040160405180910390fd5b6040517fcb4cc73300000000000000000000000000000000000000000000000000000000815273ffffffffffffffffffffffffffffffffffffffff85169063cb4cc7339061033f9086908690600401610699565b6020604051808303816000875af115801561035e573d6000803e3d6000fd5b505050506040513d601f19601f8201168201806040525081019061038291906106e6565b73ffffffffffffffffffffffffffffffffffffffff80821660008181526001602081905260409182902080547fffffffffffffffffffffffffffffffffffffffffffffffffffffffffffffff001690911790555192935091908616907fe020dd2a477d95c05910fa2aef1f6285c53cb310a0ff8af60e73a9e4f67b7a309061040d9087908790610699565b60405180910390a39392505050565b6104246104d8565b73ffffffffffffffffffffffffffffffffffffffff81166104cc576040517f08c379a000000000000000000000000000000000000000000000000000000000815260206004820152602660248201527f4f776e61626c653a206e6577206f776e657220697320746865207a65726f206160448201527f646472657373000000000000000000000000000000000000000000000000000060648201526084015b60405180910390fd5b6104d581610559565b50565b60005473ffffffffffffffffffffffffffffffffffffffff16331461018f576040517f08c379a000000000000000000000000000000000000000000000000000000000815260206004820181905260248201527f4f776e61626c653a2063616c6c6572206973206e6f7420746865206f776e657260448201526064016104c3565b6000805473ffffffffffffffffffffffffffffffffffffffff8381167fffffffffffffffffffffffff0000000000000000000000000000000000000000831681178455604051919092169283917f8be0079c531659141344cd1fd0a4f28419497f9722a3daafe3b4186f6b6457e09190a35050565b73ffffffffffffffffffffffffffffffffffffffff811681146104d557600080fd5b60006020828403121561060257600080fd5b813561060d816105ce565b9392505050565b60008060006040848603121561062957600080fd5b8335610634816105ce565b9250602084013567ffffffffffffffff8082111561065157600080fd5b818601915086601f83011261066557600080fd5b81358181111561067457600080fd5b87602082850101111561068657600080fd5b6020830194508093505050509250925092565b60208152816020820152818360408301376000818301604090810191909152601f9092017fffffffffffffffffffffffffffffffffffffffffffffffffffffffffffffffe0160101919050565b6000602082840312156106f857600080fd5b815161060d816105ce56fea264697066735822122069d2243bf494c6bbcb2496e3edf40096dfdfa942c5d7a4a6d5b4d1a0ec777b6064736f6c634300080f0033",
    "linkReferences": {}
  },
  "methodIdentifiers": {
    "addToAllowed(address)": "8244f99f",
    "allowedFactories(address)": "cbc5ac01",
    "deployVault(address,bytes)": "968cbade",
    "owner()": "8da5cb5b",
    "removeFromAllowed(address)": "9666a522",
    "renounceOwnership()": "715018a6",
    "transferOwnership(address)": "f2fde38b",
    "vaults(address)": "a622ee7c"
  }
}