{
  "address": "0x518Ad4acAdb3FdE4Ab990a79A0583FA8c4E35FcA",
  "abi": [
    {
      "inputs": [
        {
          "internalType": "contract IWETH9",
          "name": "weth",
          "type": "address"
        },
        {
          "internalType": "contract IConnextHandler",
          "name": "connext_",
          "type": "address"
        }
      ],
      "stateMutability": "nonpayable",
      "type": "constructor"
    },
    {
      "inputs": [],
      "name": "BaseRouter__bundleInternal_wrongInput",
      "type": "error"
    },
    {
      "inputs": [],
      "name": "WETH9",
      "outputs": [
        {
          "internalType": "contract IWETH9",
          "name": "",
          "type": "address"
        }
      ],
      "stateMutability": "view",
      "type": "function"
    },
    {
      "inputs": [
        {
          "internalType": "contract ERC20",
          "name": "token",
          "type": "address"
        },
        {
          "internalType": "address",
          "name": "to",
          "type": "address"
        },
        {
          "internalType": "uint256",
          "name": "amount",
          "type": "uint256"
        }
      ],
      "name": "approve",
      "outputs": [],
      "stateMutability": "payable",
      "type": "function"
    },
    {
      "inputs": [],
      "name": "connext",
      "outputs": [
        {
          "internalType": "contract IConnextHandler",
          "name": "",
          "type": "address"
        }
      ],
      "stateMutability": "view",
      "type": "function"
    },
    {
      "inputs": [],
      "name": "executor",
      "outputs": [
        {
          "internalType": "address",
          "name": "",
          "type": "address"
        }
      ],
      "stateMutability": "view",
      "type": "function"
    },
    {
      "inputs": [
        {
          "internalType": "bytes",
          "name": "params",
          "type": "bytes"
        }
      ],
      "name": "inboundXCall",
      "outputs": [],
      "stateMutability": "nonpayable",
      "type": "function"
    },
    {
      "inputs": [
        {
          "internalType": "contract ERC20",
          "name": "token",
          "type": "address"
        },
        {
          "internalType": "uint256",
          "name": "amount",
          "type": "uint256"
        },
        {
          "internalType": "address",
          "name": "recipient",
          "type": "address"
        }
      ],
      "name": "pullToken",
      "outputs": [],
      "stateMutability": "payable",
      "type": "function"
    },
    {
      "inputs": [
        {
          "internalType": "contract ERC20",
          "name": "token",
          "type": "address"
        },
        {
          "internalType": "uint256",
          "name": "amount",
          "type": "uint256"
        },
        {
          "internalType": "address",
          "name": "recipient",
          "type": "address"
        },
        {
          "internalType": "address",
          "name": "sender",
          "type": "address"
        }
      ],
      "name": "pullTokenFrom",
      "outputs": [],
      "stateMutability": "payable",
      "type": "function"
    },
    {
      "inputs": [],
      "name": "refundETH",
      "outputs": [],
      "stateMutability": "payable",
      "type": "function"
    },
    {
      "inputs": [
        {
          "internalType": "uint256",
          "name": "",
          "type": "uint256"
        }
      ],
      "name": "routerByDomain",
      "outputs": [
        {
          "internalType": "address",
          "name": "",
          "type": "address"
        }
      ],
      "stateMutability": "view",
      "type": "function"
    },
    {
      "inputs": [
        {
          "internalType": "uint256",
          "name": "domain",
          "type": "uint256"
        },
        {
          "internalType": "address",
          "name": "router",
          "type": "address"
        }
      ],
      "name": "setRouter",
      "outputs": [],
      "stateMutability": "nonpayable",
      "type": "function"
    },
    {
      "inputs": [
        {
          "internalType": "contract ERC20",
          "name": "token",
          "type": "address"
        },
        {
          "internalType": "uint256",
          "name": "amountMinimum",
          "type": "uint256"
        },
        {
          "internalType": "address",
          "name": "recipient",
          "type": "address"
        }
      ],
      "name": "sweepToken",
      "outputs": [],
      "stateMutability": "payable",
      "type": "function"
    },
    {
      "inputs": [
        {
          "internalType": "uint256",
          "name": "amountMinimum",
          "type": "uint256"
        },
        {
          "internalType": "address",
          "name": "recipient",
          "type": "address"
        }
      ],
      "name": "unwrapWETH9",
      "outputs": [],
      "stateMutability": "payable",
      "type": "function"
    },
    {
      "inputs": [],
      "name": "wrapWETH9",
      "outputs": [],
      "stateMutability": "payable",
      "type": "function"
    },
    {
      "inputs": [
        {
          "internalType": "enum IRouter.Action[]",
          "name": "actions",
          "type": "uint8[]"
        },
        {
          "internalType": "bytes[]",
          "name": "args",
          "type": "bytes[]"
        }
      ],
      "name": "xBundle",
      "outputs": [],
      "stateMutability": "nonpayable",
      "type": "function"
    },
    {
      "stateMutability": "payable",
      "type": "receive"
    }
  ],
  "transactionHash": "0xea7409e979b08a882526e5b9c975863067e97aa0b937b7689dfb4b4e3830e674",
  "args": [
    "0x2e3A2fb8473316A02b8A297B982498E661E1f6f5",
    "0xB4C1340434920d70aD774309C75f9a4B679d801e"
  ],
  "numDeployments": 1,
  "bytecode": {
    "object": "0x60a06040523480156200001157600080fd5b5060405162002950380380620029508339810160408190526200003491620000fc565b6001600160a01b03828116608052600080546001600160a01b03191691831691821790556040805163c34c08e560e01b8152905163c34c08e5916004808201926020929091908290030181865afa15801562000094573d6000803e3d6000fd5b505050506040513d601f19601f82011682018060405250810190620000ba91906200013b565b600180546001600160a01b0319166001600160a01b039290921691909117905550620001629050565b6001600160a01b0381168114620000f957600080fd5b50565b600080604083850312156200011057600080fd5b82516200011d81620000e3565b60208401519092506200013081620000e3565b809150509250929050565b6000602082840312156200014e57600080fd5b81516200015b81620000e3565b9392505050565b6080516127bd6200019360003960008181610185015281816102df01528181610384015261049d01526127bd6000f3fe6080604052600436106100e15760003560e01c806373d154141161007f578063c34c08e511610059578063c34c08e51461025f578063de4b05481461027f578063df2ab5bb1461029f578063e1f21c67146102b257600080fd5b806373d1541414610219578063a3fb20f41461022c578063b564a82a1461024c57600080fd5b806349404b7c116100bb57806349404b7c146101605780634aa4a4fc146101735780635955003c146101c35780636fc94b07146101f957600080fd5b8063087de6f7146100ed57806312210e8a146101505780633f50fd1f1461015857600080fd5b366100e857005b600080fd5b3480156100f957600080fd5b5061014e610108366004611a76565b60009182526002602052604090912080547fffffffffffffffffffffffff0000000000000000000000000000000000000000166001600160a01b03909216919091179055565b005b61014e6102c5565b61014e6102d7565b61014e61016e366004611a76565b610353565b34801561017f57600080fd5b506101a77f000000000000000000000000000000000000000000000000000000000000000081565b6040516001600160a01b03909116815260200160405180910390f35b3480156101cf57600080fd5b506101a76101de366004611aa6565b6002602052600090815260409020546001600160a01b031681565b34801561020557600080fd5b5061014e610214366004611c02565b610510565b61014e610227366004611c37565b6105cf565b34801561023857600080fd5b5061014e610247366004611d35565b6105e4565b61014e61025a366004611df7565b6105f2565b34801561026b57600080fd5b506001546101a7906001600160a01b031681565b34801561028b57600080fd5b506000546101a7906001600160a01b031681565b61014e6102ad366004611c37565b61060d565b61014e6102c0366004611e4a565b610717565b47156102d5576102d5334761072b565b565b47156102d5577f00000000000000000000000000000000000000000000000000000000000000006001600160a01b031663d0e30db0476040518263ffffffff1660e01b81526004016000604051808303818588803b15801561033857600080fd5b505af115801561034c573d6000803e3d6000fd5b5050505050565b6040517f70a082310000000000000000000000000000000000000000000000000000000081523060048201526000907f00000000000000000000000000000000000000000000000000000000000000006001600160a01b0316906370a0823190602401602060405180830381865afa1580156103d3573d6000803e3d6000fd5b505050506040513d601f19601f820116820180604052508101906103f79190611e8b565b905082811015610468576040517f08c379a000000000000000000000000000000000000000000000000000000000815260206004820152601260248201527f496e73756666696369656e74205745544839000000000000000000000000000060448201526064015b60405180910390fd5b801561050b576040517f2e1a7d4d000000000000000000000000000000000000000000000000000000008152600481018290527f00000000000000000000000000000000000000000000000000000000000000006001600160a01b031690632e1a7d4d90602401600060405180830381600087803b1580156104e957600080fd5b505af11580156104fd573d6000803e3d6000fd5b5050505061050b828261072b565b505050565b6001546001600160a01b031633146105aa576040517f08c379a000000000000000000000000000000000000000000000000000000000815260206004820152603c60248201527f4578706563746564206f726967696e20636f6e7472616374206f6e206f72696760448201527f696e20646f6d61696e2063616c6c6564206279204578656375746f7200000000606482015260840161045f565b600080828060200190518101906105c19190611ff9565b9150915061050b82826107a0565b61050b6001600160a01b038416338385611183565b6105ee82826107a0565b5050565b6106076001600160a01b038516828486611183565b50505050565b6040517f70a082310000000000000000000000000000000000000000000000000000000081523060048201526000906001600160a01b038516906370a0823190602401602060405180830381865afa15801561066d573d6000803e3d6000fd5b505050506040513d601f19601f820116820180604052508101906106919190611e8b565b9050828110156106fd576040517f08c379a000000000000000000000000000000000000000000000000000000000815260206004820152601260248201527f496e73756666696369656e7420746f6b656e0000000000000000000000000000604482015260640161045f565b8015610607576106076001600160a01b0385168383611252565b61050b6001600160a01b038416838361129b565b600080600080600085875af190508061050b576040517f08c379a000000000000000000000000000000000000000000000000000000000815260206004820152601360248201527f4554485f5452414e534645525f4641494c454400000000000000000000000000604482015260640161045f565b80518251146107db576040517f549eade600000000000000000000000000000000000000000000000000000000815260040160405180910390fd5b815160005b818110156106075760008482815181106107fc576107fc612082565b6020026020010151600981111561081557610815612053565b036109de5760008060008086858151811061083257610832612082565b602002602001015180602001905181019061084d91906120b1565b9350935093509350306001600160a01b0316816001600160a01b0316146108db576108db846001600160a01b03166338d52e0f6040518163ffffffff1660e01b8152600401602060405180830381865afa1580156108af573d6000803e3d6000fd5b505050506040513d601f19601f820116820180604052508101906108d391906120fb565b8430846105f2565b610947846001600160a01b03166338d52e0f6040518163ffffffff1660e01b8152600401602060405180830381865afa15801561091c573d6000803e3d6000fd5b505050506040513d601f19601f8201168201806040525081019061094091906120fb565b8585610717565b6040517f6e553f65000000000000000000000000000000000000000000000000000000008152600481018490526001600160a01b038381166024830152851690636e553f65906044015b6020604051808303816000875af11580156109b0573d6000803e3d6000fd5b505050506040513d601f19601f820116820180604052508101906109d49190611e8b565b505050505061117b565b60018482815181106109f2576109f2612082565b60200260200101516009811115610a0b57610a0b612053565b03610aa557600080600080868581518110610a2857610a28612082565b6020026020010151806020019051810190610a4391906120b1565b6040517fb460af94000000000000000000000000000000000000000000000000000000008152600481018490526001600160a01b038084166024830152808316604483015294985092965090945092509085169063b460af9490606401610991565b6002848281518110610ab957610ab9612082565b60200260200101516009811115610ad257610ad2612053565b03610b6c57600080600080868581518110610aef57610aef612082565b6020026020010151806020019051810190610b0a91906120b1565b6040517fd5164184000000000000000000000000000000000000000000000000000000008152600481018490526001600160a01b038084166024830152808316604483015294985092965090945092509085169063d516418490606401610991565b6003848281518110610b8057610b80612082565b60200260200101516009811115610b9957610b99612053565b03610cc257600080600080868581518110610bb657610bb6612082565b6020026020010151806020019051810190610bd191906120b1565b9350935093509350306001600160a01b0316816001600160a01b031614610c3357610c33846001600160a01b031663a919802d6040518163ffffffff1660e01b8152600401602060405180830381865afa1580156108af573d6000803e3d6000fd5b610c74846001600160a01b031663a919802d6040518163ffffffff1660e01b8152600401602060405180830381865afa15801561091c573d6000803e3d6000fd5b6040517fd084b9af000000000000000000000000000000000000000000000000000000008152600481018490526001600160a01b03838116602483015285169063d084b9af90604401610991565b6006848281518110610cd657610cd6612082565b60200260200101516009811115610cef57610cef612053565b03610df0576000806000806000806000808a8981518110610d1257610d12612082565b6020026020010151806020019051810190610d2d9190612135565b97509750975097509750975097509750876001600160a01b0316635b987baa888888888888886040518863ffffffff1660e01b8152600401610db197969594939291906001600160a01b0397881681529590961660208601526040850193909352606084019190915260ff16608083015260a082015260c081019190915260e00190565b600060405180830381600087803b158015610dcb57600080fd5b505af1158015610ddf573d6000803e3d6000fd5b50505050505050505050505061117b565b6007848281518110610e0457610e04612082565b60200260200101516009811115610e1d57610e1d612053565b03610edf576000806000806000806000808a8981518110610e4057610e40612082565b6020026020010151806020019051810190610e5b9190612135565b97509750975097509750975097509750876001600160a01b0316631da8bf10888888888888886040518863ffffffff1660e01b8152600401610db197969594939291906001600160a01b0397881681529590961660208601526040850193909352606084019190915260ff16608083015260a082015260c081019190915260e00190565b6008848281518110610ef357610ef3612082565b60200260200101516009811115610f0c57610f0c612053565b03610f3857610f33838281518110610f2657610f26612082565b6020026020010151611403565b61117b565b6009848281518110610f4c57610f4c612082565b60200260200101516009811115610f6557610f65612053565b03610f8c57610f33838281518110610f7f57610f7f612082565b6020026020010151611629565b6005848281518110610fa057610fa0612082565b60200260200101516009811115610fb957610fb9612053565b036110ad576000806000806000806000898881518110610fdb57610fdb612082565b6020026020010151806020019051810190610ff691906121b8565b965096509650965096509650965061100f868886610717565b6040517f17d88f460000000000000000000000000000000000000000000000000000000081526001600160a01b0387811660048301528681166024830152604482018590528381166064830152608482018390528816906317d88f469060a401600060405180830381600087803b15801561108957600080fd5b505af115801561109d573d6000803e3d6000fd5b505050505050505050505061117b565b60048482815181106110c1576110c1612082565b602002602001015160098111156110da576110da612053565b0361117b5760008060008584815181106110f6576110f6612082565b60200260200101518060200190518101906111119190612237565b925092509250826001600160a01b03166389f78cd683836040518363ffffffff1660e01b81526004016111459291906123bc565b600060405180830381600087803b15801561115f57600080fd5b505af1158015611173573d6000803e3d6000fd5b505050505050505b6001016107e0565b6040516001600160a01b03808516602483015283166044820152606481018290526106079085907f23b872dd00000000000000000000000000000000000000000000000000000000906084015b604080517fffffffffffffffffffffffffffffffffffffffffffffffffffffffffffffffe08184030181529190526020810180517bffffffffffffffffffffffffffffffffffffffffffffffffffffffff167fffffffff000000000000000000000000000000000000000000000000000000009093169290921790915261176a565b6040516001600160a01b03831660248201526044810182905261050b9084907fa9059cbb00000000000000000000000000000000000000000000000000000000906064016111d0565b80158061132e57506040517fdd62ed3e0000000000000000000000000000000000000000000000000000000081523060048201526001600160a01b03838116602483015284169063dd62ed3e90604401602060405180830381865afa158015611308573d6000803e3d6000fd5b505050506040513d601f19601f8201168201806040525081019061132c9190611e8b565b155b6113ba576040517f08c379a000000000000000000000000000000000000000000000000000000000815260206004820152603660248201527f5361666545524332303a20617070726f76652066726f6d206e6f6e2d7a65726f60448201527f20746f206e6f6e2d7a65726f20616c6c6f77616e636500000000000000000000606482015260840161045f565b6040516001600160a01b03831660248201526044810182905261050b9084907f095ea7b300000000000000000000000000000000000000000000000000000000906064016111d0565b6000806000808480602001905181019061141d91906124bc565b93509350935093506114308383306105cf565b6000546114489084906001600160a01b031684610717565b6000604051806101800160405280836001600160a01b0316815260200160405180602001604052806000815250815260200160008054906101000a90046001600160a01b03166001600160a01b031663c2fb26a66040518163ffffffff1660e01b8152600401602060405180830381865afa1580156114cb573d6000803e3d6000fd5b505050506040513d601f19601f820116820180604052508101906114ef9190611e8b565b63ffffffff9081168252871660208201523360408201819052606082015260006080820181905260a0820181905260c0820181905260e08201819052610100820152610120016115406064866124fc565b61154b906063612537565b815250905060006040518060800160405280838152602001866001600160a01b0316815260200185815260200160648661158591906124fc565b611590906063612537565b90526000546040517f35c94dfc0000000000000000000000000000000000000000000000000000000081529192506001600160a01b0316906335c94dfc906115dc90849060040161259b565b6020604051808303816000875af11580156115fb573d6000803e3d6000fd5b505050506040513d601f19601f8201168201806040525081019061161f9190611e8b565b5050505050505050565b6000806000808480602001905181019061164391906126d2565b93509350935093506116568383306105cf565b60005461166e9084906001600160a01b031684610717565b6040805161018081018252600086815260026020908152838220546001600160a01b039081168452818401869052825485517fc2fb26a600000000000000000000000000000000000000000000000000000000815286519496860194919092169263c2fb26a692600480820193918290030181865afa1580156116f5573d6000803e3d6000fd5b505050506040513d601f19601f820116820180604052508101906117199190611e8b565b63ffffffff9081168252871660208201523360408201819052606082015260016080820152600060a0820181905260c0820181905260e08201819052610100820152610120016115406064866124fc565b60006117bf826040518060400160405280602081526020017f5361666545524332303a206c6f772d6c6576656c2063616c6c206661696c6564815250856001600160a01b03166118699092919063ffffffff16565b80519091501561050b57808060200190518101906117dd9190612736565b61050b576040517f08c379a000000000000000000000000000000000000000000000000000000000815260206004820152602a60248201527f5361666545524332303a204552433230206f7065726174696f6e20646964206e60448201527f6f74207375636365656400000000000000000000000000000000000000000000606482015260840161045f565b60606118788484600085611880565b949350505050565b606082471015611912576040517f08c379a000000000000000000000000000000000000000000000000000000000815260206004820152602660248201527f416464726573733a20696e73756666696369656e742062616c616e636520666f60448201527f722063616c6c0000000000000000000000000000000000000000000000000000606482015260840161045f565b600080866001600160a01b0316858760405161192e9190612758565b60006040518083038185875af1925050503d806000811461196b576040519150601f19603f3d011682016040523d82523d6000602084013e611970565b606091505b50915091506119818783838761198c565b979650505050505050565b60608315611a15578251600003611a0e576001600160a01b0385163b611a0e576040517f08c379a000000000000000000000000000000000000000000000000000000000815260206004820152601d60248201527f416464726573733a2063616c6c20746f206e6f6e2d636f6e7472616374000000604482015260640161045f565b5081611878565b6118788383815115611a2a5781518083602001fd5b806040517f08c379a000000000000000000000000000000000000000000000000000000000815260040161045f9190612774565b6001600160a01b0381168114611a7357600080fd5b50565b60008060408385031215611a8957600080fd5b823591506020830135611a9b81611a5e565b809150509250929050565b600060208284031215611ab857600080fd5b5035919050565b7f4e487b7100000000000000000000000000000000000000000000000000000000600052604160045260246000fd5b60405160a0810167ffffffffffffffff81118282101715611b1157611b11611abf565b60405290565b604051601f82017fffffffffffffffffffffffffffffffffffffffffffffffffffffffffffffffe016810167ffffffffffffffff81118282101715611b5e57611b5e611abf565b604052919050565b600067ffffffffffffffff821115611b8057611b80611abf565b50601f017fffffffffffffffffffffffffffffffffffffffffffffffffffffffffffffffe01660200190565b600082601f830112611bbd57600080fd5b8135611bd0611bcb82611b66565b611b17565b818152846020838601011115611be557600080fd5b816020850160208301376000918101602001919091529392505050565b600060208284031215611c1457600080fd5b813567ffffffffffffffff811115611c2b57600080fd5b61187884828501611bac565b600080600060608486031215611c4c57600080fd5b8335611c5781611a5e565b9250602084013591506040840135611c6e81611a5e565b809150509250925092565b600067ffffffffffffffff821115611c9357611c93611abf565b5060051b60200190565b600a8110611a7357600080fd5b600082601f830112611cbb57600080fd5b81356020611ccb611bcb83611c79565b82815260059290921b84018101918181019086841115611cea57600080fd5b8286015b84811015611d2a57803567ffffffffffffffff811115611d0e5760008081fd5b611d1c8986838b0101611bac565b845250918301918301611cee565b509695505050505050565b60008060408385031215611d4857600080fd5b823567ffffffffffffffff80821115611d6057600080fd5b818501915085601f830112611d7457600080fd5b81356020611d84611bcb83611c79565b82815260059290921b84018101918181019089841115611da357600080fd5b948201945b83861015611dca578535611dbb81611c9d565b82529482019490820190611da8565b96505086013592505080821115611de057600080fd5b50611ded85828601611caa565b9150509250929050565b60008060008060808587031215611e0d57600080fd5b8435611e1881611a5e565b9350602085013592506040850135611e2f81611a5e565b91506060850135611e3f81611a5e565b939692955090935050565b600080600060608486031215611e5f57600080fd5b8335611e6a81611a5e565b92506020840135611e7a81611a5e565b929592945050506040919091013590565b600060208284031215611e9d57600080fd5b5051919050565b600082601f830112611eb557600080fd5b81516020611ec5611bcb83611c79565b82815260059290921b84018101918181019086841115611ee457600080fd5b8286015b84811015611d2a578051611efb81611c9d565b8352918301918301611ee8565b60005b83811015611f23578181015183820152602001611f0b565b838111156106075750506000910152565b600082601f830112611f4557600080fd5b8151611f53611bcb82611b66565b818152846020838601011115611f6857600080fd5b611878826020830160208701611f08565b600082601f830112611f8a57600080fd5b81516020611f9a611bcb83611c79565b82815260059290921b84018101918181019086841115611fb957600080fd5b8286015b84811015611d2a57805167ffffffffffffffff811115611fdd5760008081fd5b611feb8986838b0101611f34565b845250918301918301611fbd565b6000806040838503121561200c57600080fd5b825167ffffffffffffffff8082111561202457600080fd5b61203086838701611ea4565b9350602085015191508082111561204657600080fd5b50611ded85828601611f79565b7f4e487b7100000000000000000000000000000000000000000000000000000000600052602160045260246000fd5b7f4e487b7100000000000000000000000000000000000000000000000000000000600052603260045260246000fd5b600080600080608085870312156120c757600080fd5b84516120d281611a5e565b6020860151604087015191955093506120ea81611a5e565b6060860151909250611e3f81611a5e565b60006020828403121561210d57600080fd5b815161211881611a5e565b9392505050565b805160ff8116811461213057600080fd5b919050565b600080600080600080600080610100898b03121561215257600080fd5b885161215d81611a5e565b60208a015190985061216e81611a5e565b60408a015190975061217f81611a5e565b60608a015160808b01519197509550935061219c60a08a0161211f565b60c08a015160e0909a0151989b979a5095989497939692505050565b600080600080600080600060e0888a0312156121d357600080fd5b87516121de81611a5e565b60208901519097506121ef81611a5e565b604089015190965061220081611a5e565b80955050606088015193506080880151925060a088015161222081611a5e565b8092505060c0880151905092959891949750929550565b60008060006060848603121561224c57600080fd5b835161225781611a5e565b602085015190935067ffffffffffffffff8082111561227557600080fd5b9085019060a0828803121561228957600080fd5b612291611aee565b825161229c81611a5e565b81526020838101519082015260408301516122b681611a5e565b60408201526060830151828111156122cd57600080fd5b6122d989828601611ea4565b6060830152506080830151828111156122f157600080fd5b6122fd89828601611f79565b60808301525093506123149150506040850161211f565b90509250925092565b60008151808452612335816020860160208601611f08565b601f017fffffffffffffffffffffffffffffffffffffffffffffffffffffffffffffffe0169290920160200192915050565b600081518084526020808501808196508360051b8101915082860160005b858110156123af57828403895261239d84835161231d565b98850198935090840190600101612385565b5091979650505050505050565b60408152600060e082016001600160a01b0380865116604085015260208087015160608601528160408801511660808601526060870151915060a08086015282825180855261010087019150828401945060009350835b81811015612464578551600a8110612452577f4e487b710000000000000000000000000000000000000000000000000000000086526021600452602486fd5b83529483019491830191600101612413565b5050608088015193507fffffffffffffffffffffffffffffffffffffffffffffffffffffffffffffffc08682030160c08701526124a18185612367565b9450506124b28186018760ff169052565b5050509392505050565b600080600080608085870312156124d257600080fd5b8451935060208501516124e481611a5e565b604086015160608701519194509250611e3f81611a5e565b600082612532577f4e487b7100000000000000000000000000000000000000000000000000000000600052601260045260246000fd5b500490565b6000817fffffffffffffffffffffffffffffffffffffffffffffffffffffffffffffffff0483118215151615612596577f4e487b7100000000000000000000000000000000000000000000000000000000600052601160045260246000fd5b500290565b6020815260008251608060208401526125c060a0840182516001600160a01b03169052565b60208101516101808060c08601526125dc61022086018361231d565b915060408301516125f560e087018263ffffffff169052565b50606083015161010061260f8188018363ffffffff169052565b6080850151915061012061262d818901846001600160a01b03169052565b60a0860151925061014061264b818a01856001600160a01b03169052565b60c08701519350610160612662818b018615159052565b60e08801511515958a0195909552918601516001600160a01b039081166101a08a0152908601516101c0890152908501516101e088015291909301516102008601526020860151908116604086015291506040850151606085015260608501516080850152809250505092915050565b600080600080608085870312156126e857600080fd5b8451935060208501516126fa81611a5e565b60408601516060870151919450925067ffffffffffffffff81111561271e57600080fd5b61272a87828801611f34565b91505092959194509250565b60006020828403121561274857600080fd5b8151801515811461211857600080fd5b6000825161276a818460208701611f08565b9190910192915050565b602081526000612118602083018461231d56fea264697066735822122073d8bf7520169aa1b3cbd4f97a8a2a7dacb530173224c3e1e75e98659beffbe964736f6c634300080f0033",
    "linkReferences": {}
  },
  "methodIdentifiers": {
    "WETH9()": "4aa4a4fc",
    "approve(address,address,uint256)": "e1f21c67",
    "connext()": "de4b0548",
    "executor()": "c34c08e5",
    "inboundXCall(bytes)": "6fc94b07",
    "pullToken(address,uint256,address)": "73d15414",
    "pullTokenFrom(address,uint256,address,address)": "b564a82a",
    "refundETH()": "12210e8a",
    "routerByDomain(uint256)": "5955003c",
    "setRouter(uint256,address)": "087de6f7",
    "sweepToken(address,uint256,address)": "df2ab5bb",
    "unwrapWETH9(uint256,address)": "49404b7c",
    "wrapWETH9()": "3f50fd1f",
    "xBundle(uint8[],bytes[])": "a3fb20f4"
  }
}