{
  "address": "0x72096fF756fC2131F7Dd87924544D0244Ee9ef74",
  "abi": [
    {
      "inputs": [
        {
          "internalType": "address[]",
          "name": "_assets",
          "type": "address[]"
        },
        {
          "internalType": "address[]",
          "name": "_priceFeeds",
          "type": "address[]"
        }
      ],
      "stateMutability": "nonpayable",
      "type": "constructor"
    },
    {
      "inputs": [],
      "name": "FujiOracle__lengthMismatch",
      "type": "error"
    },
    {
      "inputs": [],
      "name": "FujiOracle__noPriceFeed",
      "type": "error"
    },
    {
      "inputs": [],
      "name": "FujiOracle__noZeroAddress",
      "type": "error"
    },
    {
      "anonymous": false,
      "inputs": [
        {
          "indexed": false,
          "internalType": "address",
          "name": "asset",
          "type": "address"
        },
        {
          "indexed": false,
          "internalType": "address",
          "name": "newPriceFeedAddress",
          "type": "address"
        }
      ],
      "name": "AssetPriceFeedChanged",
      "type": "event"
    },
    {
      "anonymous": false,
      "inputs": [
        {
          "indexed": true,
          "internalType": "address",
          "name": "previousOwner",
          "type": "address"
        },
        {
          "indexed": true,
          "internalType": "address",
          "name": "newOwner",
          "type": "address"
        }
      ],
      "name": "OwnershipTransferred",
      "type": "event"
    },
    {
      "inputs": [
        {
          "internalType": "address",
          "name": "_currencyAsset",
          "type": "address"
        },
        {
          "internalType": "address",
          "name": "_commodityAsset",
          "type": "address"
        },
        {
          "internalType": "uint8",
          "name": "_decimals",
          "type": "uint8"
        }
      ],
      "name": "getPriceOf",
      "outputs": [
        {
          "internalType": "uint256",
          "name": "price",
          "type": "uint256"
        }
      ],
      "stateMutability": "view",
      "type": "function"
    },
    {
      "inputs": [],
      "name": "owner",
      "outputs": [
        {
          "internalType": "address",
          "name": "",
          "type": "address"
        }
      ],
      "stateMutability": "view",
      "type": "function"
    },
    {
      "inputs": [],
      "name": "renounceOwnership",
      "outputs": [],
      "stateMutability": "nonpayable",
      "type": "function"
    },
    {
      "inputs": [
        {
          "internalType": "address",
          "name": "_asset",
          "type": "address"
        },
        {
          "internalType": "address",
          "name": "_priceFeed",
          "type": "address"
        }
      ],
      "name": "setPriceFeed",
      "outputs": [],
      "stateMutability": "nonpayable",
      "type": "function"
    },
    {
      "inputs": [
        {
          "internalType": "address",
          "name": "newOwner",
          "type": "address"
        }
      ],
      "name": "transferOwnership",
      "outputs": [],
      "stateMutability": "nonpayable",
      "type": "function"
    },
    {
      "inputs": [
        {
          "internalType": "address",
          "name": "",
          "type": "address"
        }
      ],
      "name": "usdPriceFeeds",
      "outputs": [
        {
          "internalType": "address",
          "name": "",
          "type": "address"
        }
      ],
      "stateMutability": "view",
      "type": "function"
    }
  ],
  "transactionHash": "0xaf9624e66ef12253b14352b2ccc3b3b961ddb10822276ae8706254e454a4e11a",
  "args": [
    [
      "0xEeeeeEeeeEeEeeEeEeEeeEEEeeeeEeeeeeeeEEeE",
      "0x2e3A2fb8473316A02b8A297B982498E661E1f6f5",
      "0xA2025B15a1757311bfD68cb14eaeFCc237AF5b43"
    ],
    [
      "0xD4a33860578De61DBAbDc8BFdb98FD742fA7028e",
      "0xD4a33860578De61DBAbDc8BFdb98FD742fA7028e",
      "0xAb5c49580294Aff77670F839ea425f5b78ab3Ae7"
    ]
  ],
  "numDeployments": 1,
  "bytecode": {
    "object": "0x60806040523480156200001157600080fd5b5060405162000bd338038062000bd3833981016040819052620000349162000240565b6200003f3362000110565b80518251146200006257604051634a97f88d60e11b815260040160405180910390fd5b60005b82518110156200010757818181518110620000845762000084620002aa565b602002602001015160016000858481518110620000a557620000a5620002aa565b60200260200101516001600160a01b03166001600160a01b0316815260200190815260200160002060006101000a8154816001600160a01b0302191690836001600160a01b031602179055508080620000fe90620002c0565b91505062000065565b505050620002e8565b600080546001600160a01b038381166001600160a01b0319831681178455604051919092169283917f8be0079c531659141344cd1fd0a4f28419497f9722a3daafe3b4186f6b6457e09190a35050565b634e487b7160e01b600052604160045260246000fd5b80516001600160a01b03811681146200018e57600080fd5b919050565b600082601f830112620001a557600080fd5b815160206001600160401b0380831115620001c457620001c462000160565b8260051b604051601f19603f83011681018181108482111715620001ec57620001ec62000160565b6040529384528581018301938381019250878511156200020b57600080fd5b83870191505b848210156200023557620002258262000176565b8352918301919083019062000211565b979650505050505050565b600080604083850312156200025457600080fd5b82516001600160401b03808211156200026c57600080fd5b6200027a8683870162000193565b935060208501519150808211156200029157600080fd5b50620002a08582860162000193565b9150509250929050565b634e487b7160e01b600052603260045260246000fd5b600060018201620002e157634e487b7160e01b600052601160045260246000fd5b5060010190565b6108db80620002f86000396000f3fe608060405234801561001057600080fd5b50600436106100725760003560e01c80638da5cb5b116100505780638da5cb5b146100ba578063f0e0626f146100f9578063f2fde38b1461012f57600080fd5b8063715018a614610077578063721adea71461008157806376e11286146100a7575b600080fd5b61007f610142565b005b61009461008f3660046105cb565b610156565b6040519081526020015b60405180910390f35b61007f6100b5366004610618565b6101fd565b60005473ffffffffffffffffffffffffffffffffffffffff165b60405173ffffffffffffffffffffffffffffffffffffffff909116815260200161009e565b6100d461010736600461064b565b60016020526000908152604090205473ffffffffffffffffffffffffffffffffffffffff1681565b61007f61013d36600461064b565b6102e2565b61014a61039e565b610154600061041f565b565b600061016660ff8316600a6107b7565b905073ffffffffffffffffffffffffffffffffffffffff83161561019e5761018d83610494565b61019790826107c3565b90506101af565b6101ac816305f5e1006107c3565b90505b73ffffffffffffffffffffffffffffffffffffffff8416156101e5576101d484610494565b6101de9082610800565b90506101f6565b6101f36305f5e10082610800565b90505b9392505050565b61020561039e565b73ffffffffffffffffffffffffffffffffffffffff8116610252576040517fd4eb898f00000000000000000000000000000000000000000000000000000000815260040160405180910390fd5b73ffffffffffffffffffffffffffffffffffffffff82811660008181526001602090815260409182902080547fffffffffffffffffffffffff000000000000000000000000000000000000000016948616948517905581519283528201929092527f08263b6cb7360c1319d30f9e03ddceac6d81e2ff3a9db6804d63dfc67ef8fb69910160405180910390a15050565b6102ea61039e565b73ffffffffffffffffffffffffffffffffffffffff8116610392576040517f08c379a000000000000000000000000000000000000000000000000000000000815260206004820152602660248201527f4f776e61626c653a206e6577206f776e657220697320746865207a65726f206160448201527f646472657373000000000000000000000000000000000000000000000000000060648201526084015b60405180910390fd5b61039b8161041f565b50565b60005473ffffffffffffffffffffffffffffffffffffffff163314610154576040517f08c379a000000000000000000000000000000000000000000000000000000000815260206004820181905260248201527f4f776e61626c653a2063616c6c6572206973206e6f7420746865206f776e65726044820152606401610389565b6000805473ffffffffffffffffffffffffffffffffffffffff8381167fffffffffffffffffffffffff0000000000000000000000000000000000000000831681178455604051919092169283917f8be0079c531659141344cd1fd0a4f28419497f9722a3daafe3b4186f6b6457e09190a35050565b73ffffffffffffffffffffffffffffffffffffffff8181166000908152600160205260408120549091166104f4576040517fb72f42b600000000000000000000000000000000000000000000000000000000815260040160405180910390fd5b73ffffffffffffffffffffffffffffffffffffffff8083166000908152600160205260408082205481517ffeaf968c00000000000000000000000000000000000000000000000000000000815291519293169163feaf968c9160048082019260a0929091908290030181865afa158015610572573d6000803e3d6000fd5b505050506040513d601f19601f820116820180604052508101906105969190610855565b50919695505050505050565b803573ffffffffffffffffffffffffffffffffffffffff811681146105c657600080fd5b919050565b6000806000606084860312156105e057600080fd5b6105e9846105a2565b92506105f7602085016105a2565b9150604084013560ff8116811461060d57600080fd5b809150509250925092565b6000806040838503121561062b57600080fd5b610634836105a2565b9150610642602084016105a2565b90509250929050565b60006020828403121561065d57600080fd5b6101f6826105a2565b7f4e487b7100000000000000000000000000000000000000000000000000000000600052601160045260246000fd5b600181815b808511156106ee57817fffffffffffffffffffffffffffffffffffffffffffffffffffffffffffffffff048211156106d4576106d4610666565b808516156106e157918102915b93841c939080029061069a565b509250929050565b600082610705575060016107b1565b81610712575060006107b1565b816001811461072857600281146107325761074e565b60019150506107b1565b60ff84111561074357610743610666565b50506001821b6107b1565b5060208310610133831016604e8410600b8410161715610771575081810a6107b1565b61077b8383610695565b807fffffffffffffffffffffffffffffffffffffffffffffffffffffffffffffffff048211156107ad576107ad610666565b0290505b92915050565b60006101f683836106f6565b6000817fffffffffffffffffffffffffffffffffffffffffffffffffffffffffffffffff04831182151516156107fb576107fb610666565b500290565b600082610836577f4e487b7100000000000000000000000000000000000000000000000000000000600052601260045260246000fd5b500490565b805169ffffffffffffffffffff811681146105c657600080fd5b600080600080600060a0868803121561086d57600080fd5b6108768661083b565b94506020860151935060408601519250606086015191506108996080870161083b565b9050929550929590935056fea2646970667358221220bdbd628732a1162deeadf2454be7669e4e24c0cba91d2cd2d0bccb877bdd36e964736f6c634300080f0033",
    "linkReferences": {}
  },
  "methodIdentifiers": {
    "getPriceOf(address,address,uint8)": "721adea7",
    "owner()": "8da5cb5b",
    "renounceOwnership()": "715018a6",
    "setPriceFeed(address,address)": "76e11286",
    "transferOwnership(address)": "f2fde38b",
    "usdPriceFeeds(address)": "f0e0626f"
  }
}