{
  "address": "0x1A538514D1C51Bf592E3c930CeA8071a242CE38e",
  "abi": [
    {
      "inputs": [
        {
          "internalType": "contract IWETH9",
          "name": "weth",
          "type": "address"
        }
      ],
      "stateMutability": "nonpayable",
      "type": "constructor"
    },
    {
      "inputs": [],
      "name": "BaseRouter__bundleInternal_wrongInput",
      "type": "error"
    },
    {
      "inputs": [],
      "name": "SimpleRouter__noCrossTransfersImplemented",
      "type": "error"
    },
    {
      "inputs": [],
      "name": "WETH9",
      "outputs": [
        {
          "internalType": "contract IWETH9",
          "name": "",
          "type": "address"
        }
      ],
      "stateMutability": "view",
      "type": "function"
    },
    {
      "inputs": [
        {
          "internalType": "contract ERC20",
          "name": "token",
          "type": "address"
        },
        {
          "internalType": "address",
          "name": "to",
          "type": "address"
        },
        {
          "internalType": "uint256",
          "name": "amount",
          "type": "uint256"
        }
      ],
      "name": "approve",
      "outputs": [],
      "stateMutability": "payable",
      "type": "function"
    },
    {
      "inputs": [
        {
          "internalType": "bytes",
          "name": "params",
          "type": "bytes"
        }
      ],
      "name": "inboundXCall",
      "outputs": [],
      "stateMutability": "pure",
      "type": "function"
    },
    {
      "inputs": [
        {
          "internalType": "contract ERC20",
          "name": "token",
          "type": "address"
        },
        {
          "internalType": "uint256",
          "name": "amount",
          "type": "uint256"
        },
        {
          "internalType": "address",
          "name": "recipient",
          "type": "address"
        }
      ],
      "name": "pullToken",
      "outputs": [],
      "stateMutability": "payable",
      "type": "function"
    },
    {
      "inputs": [
        {
          "internalType": "contract ERC20",
          "name": "token",
          "type": "address"
        },
        {
          "internalType": "uint256",
          "name": "amount",
          "type": "uint256"
        },
        {
          "internalType": "address",
          "name": "recipient",
          "type": "address"
        },
        {
          "internalType": "address",
          "name": "sender",
          "type": "address"
        }
      ],
      "name": "pullTokenFrom",
      "outputs": [],
      "stateMutability": "payable",
      "type": "function"
    },
    {
      "inputs": [],
      "name": "refundETH",
      "outputs": [],
      "stateMutability": "payable",
      "type": "function"
    },
    {
      "inputs": [
        {
          "internalType": "contract ERC20",
          "name": "token",
          "type": "address"
        },
        {
          "internalType": "uint256",
          "name": "amountMinimum",
          "type": "uint256"
        },
        {
          "internalType": "address",
          "name": "recipient",
          "type": "address"
        }
      ],
      "name": "sweepToken",
      "outputs": [],
      "stateMutability": "payable",
      "type": "function"
    },
    {
      "inputs": [
        {
          "internalType": "uint256",
          "name": "amountMinimum",
          "type": "uint256"
        },
        {
          "internalType": "address",
          "name": "recipient",
          "type": "address"
        }
      ],
      "name": "unwrapWETH9",
      "outputs": [],
      "stateMutability": "payable",
      "type": "function"
    },
    {
      "inputs": [],
      "name": "wrapWETH9",
      "outputs": [],
      "stateMutability": "payable",
      "type": "function"
    },
    {
      "inputs": [
        {
          "internalType": "enum IRouter.Action[]",
          "name": "actions",
          "type": "uint8[]"
        },
        {
          "internalType": "bytes[]",
          "name": "args",
          "type": "bytes[]"
        }
      ],
      "name": "xBundle",
      "outputs": [],
      "stateMutability": "nonpayable",
      "type": "function"
    },
    {
      "stateMutability": "payable",
      "type": "receive"
    }
  ],
  "transactionHash": "0x84c318beb50b7e75487ab9448bfd209919965303ab05c485671dd15dd72e16d2",
  "args": [
    "0x2e3A2fb8473316A02b8A297B982498E661E1f6f5"
  ],
  "numDeployments": 1,
  "bytecode": {
    "object": "0x60a060405234801561001057600080fd5b50604051620022393803806200223983398101604081905261003191610042565b6001600160a01b0316608052610072565b60006020828403121561005457600080fd5b81516001600160a01b038116811461006b57600080fd5b9392505050565b608051612197620000a26000396000818160f8015281816101e90152818161029b01526103c101526121976000f3fe6080604052600436106100b55760003560e01c806373d1541411610069578063b564a82a1161004e578063b564a82a14610196578063df2ab5bb146101a9578063e1f21c67146101bc57600080fd5b806373d1541414610163578063a3fb20f41461017657600080fd5b806349404b7c1161009a57806349404b7c146100d35780634aa4a4fc146100e65780636fc94b071461014357600080fd5b806312210e8a146100c15780633f50fd1f146100cb57600080fd5b366100bc57005b600080fd5b6100c96101cf565b005b6100c96101e1565b6100c96100e1366004611739565b61026a565b3480156100f257600080fd5b5061011a7f000000000000000000000000000000000000000000000000000000000000000081565b60405173ffffffffffffffffffffffffffffffffffffffff909116815260200160405180910390f35b34801561014f57600080fd5b506100c961015e3660046118ac565b610441565b6100c96101713660046118e1565b610473565b34801561018257600080fd5b506100c96101913660046119df565b610495565b6100c96101a4366004611aa1565b6104a3565b6100c96101b73660046118e1565b6104cb565b6100c96101ca366004611af4565b6105ef565b47156101df576101df3347610610565b565b47156101df577f000000000000000000000000000000000000000000000000000000000000000073ffffffffffffffffffffffffffffffffffffffff1663d0e30db0476040518263ffffffff1660e01b81526004016000604051808303818588803b15801561024f57600080fd5b505af1158015610263573d6000803e3d6000fd5b5050505050565b6040517f70a082310000000000000000000000000000000000000000000000000000000081523060048201526000907f000000000000000000000000000000000000000000000000000000000000000073ffffffffffffffffffffffffffffffffffffffff16906370a0823190602401602060405180830381865afa1580156102f7573d6000803e3d6000fd5b505050506040513d601f19601f8201168201806040525081019061031b9190611b35565b90508281101561038c576040517f08c379a000000000000000000000000000000000000000000000000000000000815260206004820152601260248201527f496e73756666696369656e74205745544839000000000000000000000000000060448201526064015b60405180910390fd5b801561043c576040517f2e1a7d4d000000000000000000000000000000000000000000000000000000008152600481018290527f000000000000000000000000000000000000000000000000000000000000000073ffffffffffffffffffffffffffffffffffffffff1690632e1a7d4d90602401600060405180830381600087803b15801561041a57600080fd5b505af115801561042e573d6000803e3d6000fd5b5050505061043c8282610610565b505050565b6040517ff5513bc300000000000000000000000000000000000000000000000000000000815260040160405180910390fd5b61043c73ffffffffffffffffffffffffffffffffffffffff8416338385610685565b61049f8282610761565b5050565b6104c573ffffffffffffffffffffffffffffffffffffffff8516828486610685565b50505050565b6040517f70a0823100000000000000000000000000000000000000000000000000000000815230600482015260009073ffffffffffffffffffffffffffffffffffffffff8516906370a0823190602401602060405180830381865afa158015610538573d6000803e3d6000fd5b505050506040513d601f19601f8201168201806040525081019061055c9190611b35565b9050828110156105c8576040517f08c379a000000000000000000000000000000000000000000000000000000000815260206004820152601260248201527f496e73756666696369656e7420746f6b656e00000000000000000000000000006044820152606401610383565b80156104c5576104c573ffffffffffffffffffffffffffffffffffffffff85168383611221565b61043c73ffffffffffffffffffffffffffffffffffffffff84168383611277565b600080600080600085875af190508061043c576040517f08c379a000000000000000000000000000000000000000000000000000000000815260206004820152601360248201527f4554485f5452414e534645525f4641494c4544000000000000000000000000006044820152606401610383565b60405173ffffffffffffffffffffffffffffffffffffffff808516602483015283166044820152606481018290526104c59085907f23b872dd00000000000000000000000000000000000000000000000000000000906084015b604080517fffffffffffffffffffffffffffffffffffffffffffffffffffffffffffffffe08184030181529190526020810180517bffffffffffffffffffffffffffffffffffffffffffffffffffffffff167fffffffff00000000000000000000000000000000000000000000000000000000909316929092179091526113f9565b805182511461079c576040517f549eade600000000000000000000000000000000000000000000000000000000815260040160405180910390fd5b815160005b818110156104c55760008482815181106107bd576107bd611b7d565b602002602001015160098111156107d6576107d6611b4e565b036109e0576000806000808685815181106107f3576107f3611b7d565b602002602001015180602001905181019061080e9190611bac565b93509350935093503073ffffffffffffffffffffffffffffffffffffffff168173ffffffffffffffffffffffffffffffffffffffff16146108c3576108c38473ffffffffffffffffffffffffffffffffffffffff166338d52e0f6040518163ffffffff1660e01b8152600401602060405180830381865afa158015610897573d6000803e3d6000fd5b505050506040513d601f19601f820116820180604052508101906108bb9190611bf6565b8430846104a3565b61093c8473ffffffffffffffffffffffffffffffffffffffff166338d52e0f6040518163ffffffff1660e01b8152600401602060405180830381865afa158015610911573d6000803e3d6000fd5b505050506040513d601f19601f820116820180604052508101906109359190611bf6565b85856105ef565b6040517f6e553f650000000000000000000000000000000000000000000000000000000081526004810184905273ffffffffffffffffffffffffffffffffffffffff8381166024830152851690636e553f65906044015b6020604051808303816000875af11580156109b2573d6000803e3d6000fd5b505050506040513d601f19601f820116820180604052508101906109d69190611b35565b5050505050611219565b60018482815181106109f4576109f4611b7d565b60200260200101516009811115610a0d57610a0d611b4e565b03610ab457600080600080868581518110610a2a57610a2a611b7d565b6020026020010151806020019051810190610a459190611bac565b6040517fb460af940000000000000000000000000000000000000000000000000000000081526004810184905273ffffffffffffffffffffffffffffffffffffffff8084166024830152808316604483015294985092965090945092509085169063b460af9490606401610993565b6002848281518110610ac857610ac8611b7d565b60200260200101516009811115610ae157610ae1611b4e565b03610b8857600080600080868581518110610afe57610afe611b7d565b6020026020010151806020019051810190610b199190611bac565b6040517fd51641840000000000000000000000000000000000000000000000000000000081526004810184905273ffffffffffffffffffffffffffffffffffffffff8084166024830152808316604483015294985092965090945092509085169063d516418490606401610993565b6003848281518110610b9c57610b9c611b7d565b60200260200101516009811115610bb557610bb5611b4e565b03610d1f57600080600080868581518110610bd257610bd2611b7d565b6020026020010151806020019051810190610bed9190611bac565b93509350935093503073ffffffffffffffffffffffffffffffffffffffff168173ffffffffffffffffffffffffffffffffffffffff1614610c7657610c768473ffffffffffffffffffffffffffffffffffffffff1663a919802d6040518163ffffffff1660e01b8152600401602060405180830381865afa158015610897573d6000803e3d6000fd5b610cc48473ffffffffffffffffffffffffffffffffffffffff1663a919802d6040518163ffffffff1660e01b8152600401602060405180830381865afa158015610911573d6000803e3d6000fd5b6040517fd084b9af0000000000000000000000000000000000000000000000000000000081526004810184905273ffffffffffffffffffffffffffffffffffffffff838116602483015285169063d084b9af90604401610993565b6006848281518110610d3357610d33611b7d565b60200260200101516009811115610d4c57610d4c611b4e565b03610e67576000806000806000806000808a8981518110610d6f57610d6f611b7d565b6020026020010151806020019051810190610d8a9190611c30565b975097509750975097509750975097508773ffffffffffffffffffffffffffffffffffffffff16635b987baa888888888888886040518863ffffffff1660e01b8152600401610e28979695949392919073ffffffffffffffffffffffffffffffffffffffff97881681529590961660208601526040850193909352606084019190915260ff16608083015260a082015260c081019190915260e00190565b600060405180830381600087803b158015610e4257600080fd5b505af1158015610e56573d6000803e3d6000fd5b505050505050505050505050611219565b6007848281518110610e7b57610e7b611b7d565b60200260200101516009811115610e9457610e94611b4e565b03610f70576000806000806000806000808a8981518110610eb757610eb7611b7d565b6020026020010151806020019051810190610ed29190611c30565b975097509750975097509750975097508773ffffffffffffffffffffffffffffffffffffffff16631da8bf10888888888888886040518863ffffffff1660e01b8152600401610e28979695949392919073ffffffffffffffffffffffffffffffffffffffff97881681529590961660208601526040850193909352606084019190915260ff16608083015260a082015260c081019190915260e00190565b6008848281518110610f8457610f84611b7d565b60200260200101516009811115610f9d57610f9d611b4e565b03610fc957610fc4838281518110610fb757610fb7611b7d565b6020026020010151610441565b611219565b6009848281518110610fdd57610fdd611b7d565b60200260200101516009811115610ff657610ff6611b4e565b0361101057610fc4838281518110610fb757610fb7611b7d565b600584828151811061102457611024611b7d565b6020026020010151600981111561103d5761103d611b4e565b0361113e57600080600080600080600089888151811061105f5761105f611b7d565b602002602001015180602001905181019061107a9190611cb3565b96509650965096509650965096506110938688866105ef565b6040517f17d88f4600000000000000000000000000000000000000000000000000000000815273ffffffffffffffffffffffffffffffffffffffff87811660048301528681166024830152604482018590528381166064830152608482018390528816906317d88f469060a401600060405180830381600087803b15801561111a57600080fd5b505af115801561112e573d6000803e3d6000fd5b5050505050505050505050611219565b600484828151811061115257611152611b7d565b6020026020010151600981111561116b5761116b611b4e565b0361121957600080600085848151811061118757611187611b7d565b60200260200101518060200190518101906111a29190611e7e565b9250925092508273ffffffffffffffffffffffffffffffffffffffff166389f78cd683836040518363ffffffff1660e01b81526004016111e3929190612003565b600060405180830381600087803b1580156111fd57600080fd5b505af1158015611211573d6000803e3d6000fd5b505050505050505b6001016107a1565b60405173ffffffffffffffffffffffffffffffffffffffff831660248201526044810182905261043c9084907fa9059cbb00000000000000000000000000000000000000000000000000000000906064016106df565b80158061131757506040517fdd62ed3e00000000000000000000000000000000000000000000000000000000815230600482015273ffffffffffffffffffffffffffffffffffffffff838116602483015284169063dd62ed3e90604401602060405180830381865afa1580156112f1573d6000803e3d6000fd5b505050506040513d601f19601f820116820180604052508101906113159190611b35565b155b6113a3576040517f08c379a000000000000000000000000000000000000000000000000000000000815260206004820152603660248201527f5361666545524332303a20617070726f76652066726f6d206e6f6e2d7a65726f60448201527f20746f206e6f6e2d7a65726f20616c6c6f77616e6365000000000000000000006064820152608401610383565b60405173ffffffffffffffffffffffffffffffffffffffff831660248201526044810182905261043c9084907f095ea7b300000000000000000000000000000000000000000000000000000000906064016106df565b600061145b826040518060400160405280602081526020017f5361666545524332303a206c6f772d6c6576656c2063616c6c206661696c65648152508573ffffffffffffffffffffffffffffffffffffffff166115059092919063ffffffff16565b80519091501561043c57808060200190518101906114799190612110565b61043c576040517f08c379a000000000000000000000000000000000000000000000000000000000815260206004820152602a60248201527f5361666545524332303a204552433230206f7065726174696f6e20646964206e60448201527f6f742073756363656564000000000000000000000000000000000000000000006064820152608401610383565b6060611514848460008561151c565b949350505050565b6060824710156115ae576040517f08c379a000000000000000000000000000000000000000000000000000000000815260206004820152602660248201527f416464726573733a20696e73756666696369656e742062616c616e636520666f60448201527f722063616c6c00000000000000000000000000000000000000000000000000006064820152608401610383565b6000808673ffffffffffffffffffffffffffffffffffffffff1685876040516115d79190612132565b60006040518083038185875af1925050503d8060008114611614576040519150601f19603f3d011682016040523d82523d6000602084013e611619565b606091505b509150915061162a87838387611635565b979650505050505050565b606083156116cb5782516000036116c45773ffffffffffffffffffffffffffffffffffffffff85163b6116c4576040517f08c379a000000000000000000000000000000000000000000000000000000000815260206004820152601d60248201527f416464726573733a2063616c6c20746f206e6f6e2d636f6e74726163740000006044820152606401610383565b5081611514565b61151483838151156116e05781518083602001fd5b806040517f08c379a0000000000000000000000000000000000000000000000000000000008152600401610383919061214e565b73ffffffffffffffffffffffffffffffffffffffff8116811461173657600080fd5b50565b6000806040838503121561174c57600080fd5b82359150602083013561175e81611714565b809150509250929050565b7f4e487b7100000000000000000000000000000000000000000000000000000000600052604160045260246000fd5b60405160a0810167ffffffffffffffff811182821017156117bb576117bb611769565b60405290565b604051601f82017fffffffffffffffffffffffffffffffffffffffffffffffffffffffffffffffe016810167ffffffffffffffff8111828210171561180857611808611769565b604052919050565b600067ffffffffffffffff82111561182a5761182a611769565b50601f017fffffffffffffffffffffffffffffffffffffffffffffffffffffffffffffffe01660200190565b600082601f83011261186757600080fd5b813561187a61187582611810565b6117c1565b81815284602083860101111561188f57600080fd5b816020850160208301376000918101602001919091529392505050565b6000602082840312156118be57600080fd5b813567ffffffffffffffff8111156118d557600080fd5b61151484828501611856565b6000806000606084860312156118f657600080fd5b833561190181611714565b925060208401359150604084013561191881611714565b809150509250925092565b600067ffffffffffffffff82111561193d5761193d611769565b5060051b60200190565b600a811061173657600080fd5b600082601f83011261196557600080fd5b8135602061197561187583611923565b82815260059290921b8401810191818101908684111561199457600080fd5b8286015b848110156119d457803567ffffffffffffffff8111156119b85760008081fd5b6119c68986838b0101611856565b845250918301918301611998565b509695505050505050565b600080604083850312156119f257600080fd5b823567ffffffffffffffff80821115611a0a57600080fd5b818501915085601f830112611a1e57600080fd5b81356020611a2e61187583611923565b82815260059290921b84018101918181019089841115611a4d57600080fd5b948201945b83861015611a74578535611a6581611947565b82529482019490820190611a52565b96505086013592505080821115611a8a57600080fd5b50611a9785828601611954565b9150509250929050565b60008060008060808587031215611ab757600080fd5b8435611ac281611714565b9350602085013592506040850135611ad981611714565b91506060850135611ae981611714565b939692955090935050565b600080600060608486031215611b0957600080fd5b8335611b1481611714565b92506020840135611b2481611714565b929592945050506040919091013590565b600060208284031215611b4757600080fd5b5051919050565b7f4e487b7100000000000000000000000000000000000000000000000000000000600052602160045260246000fd5b7f4e487b7100000000000000000000000000000000000000000000000000000000600052603260045260246000fd5b60008060008060808587031215611bc257600080fd5b8451611bcd81611714565b602086015160408701519195509350611be581611714565b6060860151909250611ae981611714565b600060208284031215611c0857600080fd5b8151611c1381611714565b9392505050565b805160ff81168114611c2b57600080fd5b919050565b600080600080600080600080610100898b031215611c4d57600080fd5b8851611c5881611714565b60208a0151909850611c6981611714565b60408a0151909750611c7a81611714565b60608a015160808b015191975095509350611c9760a08a01611c1a565b60c08a015160e0909a0151989b979a5095989497939692505050565b600080600080600080600060e0888a031215611cce57600080fd5b8751611cd981611714565b6020890151909750611cea81611714565b6040890151909650611cfb81611714565b80955050606088015193506080880151925060a0880151611d1b81611714565b8092505060c0880151905092959891949750929550565b600082601f830112611d4357600080fd5b81516020611d5361187583611923565b82815260059290921b84018101918181019086841115611d7257600080fd5b8286015b848110156119d4578051611d8981611947565b8352918301918301611d76565b60005b83811015611db1578181015183820152602001611d99565b838111156104c55750506000910152565b600082601f830112611dd357600080fd5b81516020611de361187583611923565b82815260059290921b84018101918181019086841115611e0257600080fd5b8286015b848110156119d457805167ffffffffffffffff811115611e265760008081fd5b8701603f81018913611e385760008081fd5b848101516040611e4a61187583611810565b8281528b82848601011115611e5f5760008081fd5b611e6e83898301848701611d96565b8652505050918301918301611e06565b600080600060608486031215611e9357600080fd5b8351611e9e81611714565b602085015190935067ffffffffffffffff80821115611ebc57600080fd5b9085019060a08288031215611ed057600080fd5b611ed8611798565b8251611ee381611714565b8152602083810151908201526040830151611efd81611714565b6040820152606083015182811115611f1457600080fd5b611f2089828601611d32565b606083015250608083015182811115611f3857600080fd5b611f4489828601611dc2565b6080830152509350611f5b91505060408501611c1a565b90509250925092565b60008151808452611f7c816020860160208601611d96565b601f017fffffffffffffffffffffffffffffffffffffffffffffffffffffffffffffffe0169290920160200192915050565b600081518084526020808501808196508360051b8101915082860160005b85811015611ff6578284038952611fe4848351611f64565b98850198935090840190600101611fcc565b5091979650505050505050565b60408152600060e0820173ffffffffffffffffffffffffffffffffffffffff80865116604085015260208087015160608601528160408801511660808601526060870151915060a08086015282825180855261010087019150828401945060009350835b818110156120b8578551600a81106120a6577f4e487b710000000000000000000000000000000000000000000000000000000086526021600452602486fd5b83529483019491830191600101612067565b5050608088015193507fffffffffffffffffffffffffffffffffffffffffffffffffffffffffffffffc08682030160c08701526120f58185611fae565b9450506121068186018760ff169052565b5050509392505050565b60006020828403121561212257600080fd5b81518015158114611c1357600080fd5b60008251612144818460208701611d96565b9190910192915050565b602081526000611c136020830184611f6456fea2646970667358221220ee4163e9e57d5c666e6ef87eb58a0216f7a3ec360c605dba38213b7214701b2f64736f6c634300080f0033",
    "linkReferences": {}
  },
  "methodIdentifiers": {
    "WETH9()": "4aa4a4fc",
    "approve(address,address,uint256)": "e1f21c67",
    "inboundXCall(bytes)": "6fc94b07",
    "pullToken(address,uint256,address)": "73d15414",
    "pullTokenFrom(address,uint256,address,address)": "b564a82a",
    "refundETH()": "12210e8a",
    "sweepToken(address,uint256,address)": "df2ab5bb",
    "unwrapWETH9(uint256,address)": "49404b7c",
    "wrapWETH9()": "3f50fd1f",
    "xBundle(uint8[],bytes[])": "a3fb20f4"
  }
}