{
  "address": "0xD2805D525cfBaC576739211401d326bb9b2Ed35c",
  "abi": [
    {
      "inputs": [
        {
          "internalType": "address",
          "name": "_chief",
          "type": "address"
        }
      ],
      "stateMutability": "nonpayable",
      "type": "constructor"
    },
    {
      "inputs": [],
      "name": "Unauthorized",
      "type": "error"
    },
    {
      "inputs": [],
      "name": "ZeroAddress",
      "type": "error"
    },
    {
      "anonymous": false,
      "inputs": [
        {
          "indexed": false,
          "internalType": "address",
          "name": "vault",
          "type": "address"
        },
        {
          "indexed": false,
          "internalType": "address",
          "name": "asset",
          "type": "address"
        },
        {
          "indexed": false,
          "internalType": "bytes32",
          "name": "salt",
          "type": "bytes32"
        }
      ],
      "name": "VaultRegistered",
      "type": "event"
    },
    {
      "inputs": [],
      "name": "chief",
      "outputs": [
        {
          "internalType": "address",
          "name": "",
          "type": "address"
        }
      ],
      "stateMutability": "view",
      "type": "function"
    },
    {
      "inputs": [
        {
          "internalType": "bytes32",
          "name": "",
          "type": "bytes32"
        }
      ],
      "name": "configAddress",
      "outputs": [
        {
          "internalType": "address",
          "name": "",
          "type": "address"
        }
      ],
      "stateMutability": "view",
      "type": "function"
    },
    {
      "inputs": [
        {
          "internalType": "bytes",
          "name": "_deployData",
          "type": "bytes"
        }
      ],
      "name": "deployVault",
      "outputs": [
        {
          "internalType": "address",
          "name": "vault",
          "type": "address"
        }
      ],
      "stateMutability": "nonpayable",
      "type": "function"
    },
    {
      "inputs": [
        {
          "internalType": "address",
          "name": "asset",
          "type": "address"
        },
        {
          "internalType": "uint256",
          "name": "startIndex",
          "type": "uint256"
        },
        {
          "internalType": "uint256",
          "name": "count",
          "type": "uint256"
        }
      ],
      "name": "getVaults",
      "outputs": [
        {
          "internalType": "address[]",
          "name": "vaults",
          "type": "address[]"
        }
      ],
      "stateMutability": "view",
      "type": "function"
    },
    {
      "inputs": [
        {
          "internalType": "address",
          "name": "",
          "type": "address"
        },
        {
          "internalType": "uint256",
          "name": "",
          "type": "uint256"
        }
      ],
      "name": "vaultsByAsset",
      "outputs": [
        {
          "internalType": "address",
          "name": "",
          "type": "address"
        }
      ],
      "stateMutability": "view",
      "type": "function"
    },
    {
      "inputs": [
        {
          "internalType": "address",
          "name": "asset",
          "type": "address"
        }
      ],
      "name": "vaultsCount",
      "outputs": [
        {
          "internalType": "uint256",
          "name": "count",
          "type": "uint256"
        }
      ],
      "stateMutability": "view",
      "type": "function"
    }
  ],
  "transactionHash": "0xf2c77983a1f3be7e28f31c55e6e11765563539d66652c1c4cd95dfde558a7abe",
  "args": [
    "0x03aA0d5A763763f3a53317F20B204D558A8040a2"
  ],
  "numDeployments": 1,
  "bytecode": {
    "object": "0x60a060405234801561001057600080fd5b506040516144fd3803806144fd83398101604081905261002f91610069565b806001600160a01b0381166100575760405163d92e233d60e01b815260040160405180910390fd5b6001600160a01b031660805250610099565b60006020828403121561007b57600080fd5b81516001600160a01b038116811461009257600080fd5b9392505050565b60805161443b6100c260003960008181610185015281816104b10152610543015261443b6000f3fe60806040523480156200001157600080fd5b50600436106200007b5760003560e01c8063ce4c774e1162000056578063ce4c774e14620000fe578063f6ab6d991462000146578063ffd864d3146200017f57600080fd5b8063453131fa1462000080578063903f6a4714620000c1578063cb4cc73314620000e7575b600080fd5b62000097620000913660046200068c565b620001a7565b60405173ffffffffffffffffffffffffffffffffffffffff90911681526020015b60405180910390f35b620000d8620000d2366004620006bb565b620001ed565b604051620000b89190620006f3565b62000097620000f836600462000819565b6200030a565b620001376200010f366004620008a1565b73ffffffffffffffffffffffffffffffffffffffff1660009081526020819052604090205490565b604051908152602001620000b8565b6200009762000157366004620008c8565b60016020526000908152604090205473ffffffffffffffffffffffffffffffffffffffff1681565b620000977f000000000000000000000000000000000000000000000000000000000000000081565b60006020528160005260406000208181548110620001c457600080fd5b60009182526020909120015473ffffffffffffffffffffffffffffffffffffffff169150829050565b60608167ffffffffffffffff8111156200020b576200020b6200074f565b60405190808252806020026020018201604052801562000235578160200160208202803683370190505b50905060005b82811015620003025773ffffffffffffffffffffffffffffffffffffffff8516600090815260208190526040902062000275828662000911565b815481106200028857620002886200092c565b9060005260206000200160009054906101000a900473ffffffffffffffffffffffffffffffffffffffff16828281518110620002c857620002c86200092c565b73ffffffffffffffffffffffffffffffffffffffff9092166020928302919091019091015280620002f9816200095b565b9150506200023b565b509392505050565b6000808280602001905181019062000323919062000996565b905060008173ffffffffffffffffffffffffffffffffffffffff166306fdde036040518163ffffffff1660e01b8152600401600060405180830381865afa15801562000373573d6000803e3d6000fd5b505050506040513d6000823e601f3d9081017fffffffffffffffffffffffffffffffffffffffffffffffffffffffffffffffe0168201604052620003bb9190810190620009e9565b905060008273ffffffffffffffffffffffffffffffffffffffff166395d89b416040518163ffffffff1660e01b8152600401600060405180830381865afa1580156200040b573d6000803e3d6000fd5b505050506040513d6000823e601f3d9081017fffffffffffffffffffffffffffffffffffffffffffffffffffffffffffffffe0168201604052620004539190810190620009e9565b90506000826040516020016200046a919062000a69565b604051602081830303815290604052905060008260405160200162000490919062000ad7565b604051602081830303815290604052905060008780519060200120905080867f00000000000000000000000000000000000000000000000000000000000000008585604051620004e09062000658565b620004ef949392919062000b6a565b8190604051809103906000f590508015801562000510573d6000803e3d6000fd5b509650620005208787836200052b565b505050505050919050565b3373ffffffffffffffffffffffffffffffffffffffff7f000000000000000000000000000000000000000000000000000000000000000016146200059b576040517f82b4290000000000000000000000000000000000000000000000000000000000815260040160405180910390fd5b6000818152600160208181526040808420805473ffffffffffffffffffffffffffffffffffffffff8981167fffffffffffffffffffffffff00000000000000000000000000000000000000009283168117909355881680875286855283872080549687018155875295849020909401805490941681179093558051928352908201929092529081018290527f5660227e8947ffb4445cc521eeb44d200978894791562cc6b7293d91fa28d95e9060600160405180910390a1505050565b6138418062000bc583390190565b73ffffffffffffffffffffffffffffffffffffffff811681146200068957600080fd5b50565b60008060408385031215620006a057600080fd5b8235620006ad8162000666565b946020939093013593505050565b600080600060608486031215620006d157600080fd5b8335620006de8162000666565b95602085013595506040909401359392505050565b6020808252825182820181905260009190848201906040850190845b818110156200074357835173ffffffffffffffffffffffffffffffffffffffff16835292840192918401916001016200070f565b50909695505050505050565b7f4e487b7100000000000000000000000000000000000000000000000000000000600052604160045260246000fd5b604051601f82017fffffffffffffffffffffffffffffffffffffffffffffffffffffffffffffffe016810167ffffffffffffffff81118282101715620007c857620007c86200074f565b604052919050565b600067ffffffffffffffff821115620007ed57620007ed6200074f565b50601f017fffffffffffffffffffffffffffffffffffffffffffffffffffffffffffffffe01660200190565b6000602082840312156200082c57600080fd5b813567ffffffffffffffff8111156200084457600080fd5b8201601f810184136200085657600080fd5b80356200086d6200086782620007d0565b6200077e565b8181528560208385010111156200088357600080fd5b81602084016020830137600091810160200191909152949350505050565b600060208284031215620008b457600080fd5b8135620008c18162000666565b9392505050565b600060208284031215620008db57600080fd5b5035919050565b7f4e487b7100000000000000000000000000000000000000000000000000000000600052601160045260246000fd5b60008219821115620009275762000927620008e2565b500190565b7f4e487b7100000000000000000000000000000000000000000000000000000000600052603260045260246000fd5b60007fffffffffffffffffffffffffffffffffffffffffffffffffffffffffffffffff82036200098f576200098f620008e2565b5060010190565b600060208284031215620009a957600080fd5b8151620008c18162000666565b60005b83811015620009d3578181015183820152602001620009b9565b83811115620009e3576000848401525b50505050565b600060208284031215620009fc57600080fd5b815167ffffffffffffffff81111562000a1457600080fd5b8201601f8101841362000a2657600080fd5b805162000a376200086782620007d0565b81815285602083850101111562000a4d57600080fd5b62000a60826020830160208601620009b6565b95945050505050565b7f46756a692d56322000000000000000000000000000000000000000000000000081526000825162000aa3816008850160208701620009b6565b7f205969656c645661756c742053686172657300000000000000000000000000006008939091019283015250601a01919050565b7f667976000000000000000000000000000000000000000000000000000000000081526000825162000b11816003850160208701620009b6565b9190910160030192915050565b6000815180845262000b38816020860160208601620009b6565b601f017fffffffffffffffffffffffffffffffffffffffffffffffffffffffffffffffe0169290920160200192915050565b600073ffffffffffffffffffffffffffffffffffffffff80871683528086166020840152506080604083015262000ba5608083018562000b1e565b828103606084015262000bb9818562000b1e565b97965050505050505056fe6101806040523480156200001257600080fd5b50604051620038413803806200384183398101604081905262000035916200021d565b838383838180604051806040016040528060018152602001603160f81b815250848481600390816200006891906200033c565b5060046200007782826200033c565b5050825160208085019190912083518483012060e08290526101008190524660a0818152604080517f8b73c3c69bb8fe3d512ecc4cf759cc79239f7b179b0ffacaa9a75d522b39400f81880181905281830187905260608201869052608082019490945230818401528151808203909301835260c0019052805194019390932091935091906080523060c05261012052505050506001600160a01b039485166101605250505016610140525050600019600c5550620004089050565b80516001600160a01b03811681146200014b57600080fd5b919050565b634e487b7160e01b600052604160045260246000fd5b600082601f8301126200017857600080fd5b81516001600160401b038082111562000195576200019562000150565b604051601f8301601f19908116603f01168101908282118183101715620001c057620001c062000150565b81604052838152602092508683858801011115620001dd57600080fd5b600091505b83821015620002015785820183015181830184015290820190620001e2565b83821115620002135760008385830101525b9695505050505050565b600080600080608085870312156200023457600080fd5b6200023f8562000133565b93506200024f6020860162000133565b60408601519093506001600160401b03808211156200026d57600080fd5b6200027b8883890162000166565b935060608701519150808211156200029257600080fd5b50620002a18782880162000166565b91505092959194509250565b600181811c90821680620002c257607f821691505b602082108103620002e357634e487b7160e01b600052602260045260246000fd5b50919050565b601f8211156200033757600081815260208120601f850160051c81016020861015620003125750805b601f850160051c820191505b8181101562000333578281556001016200031e565b5050505b505050565b81516001600160401b0381111562000358576200035862000150565b6200037081620003698454620002ad565b84620002e9565b602080601f831160018114620003a857600084156200038f5750858301515b600019600386901b1c1916600185901b17855562000333565b600085815260208120601f198616915b82811015620003d957888601518255948401946001909101908401620003b8565b5085821015620003f85787850151600019600388901b60f8161c191681555b5050505050600190811b01905550565b60805160a05160c05160e05161010051610120516101405161016051613394620004ad6000396000818161058d015281816109e6015281816110340152818161106601528181611600015281816117f801528181611c7001528181611c9c01528181611f620152611fc2015260006109bd01526000611b1501526000611b6401526000611b3f01526000611a9801526000611ac201526000611aec01526133946000f3fe6080604052600436106103645760003560e01c80637ecebe00116101c6578063c63d75b6116100f7578063dd62ed3e11610095578063ef8b30f71161006f578063ef8b30f714610895578063f341e22814610983578063fc7b9c1814610997578063ffd864d3146109ab57600080fd5b8063dd62ed3e14610941578063e488d3ee1461072f578063edc922a91461096157600080fd5b8063d084b9af116100d1578063d084b9af146108d5578063d5164184146108f0578063d905777e1461090b578063dbd5edc71461092b57600080fd5b8063c63d75b614610873578063c6e6f59214610895578063ce96cb77146108b557600080fd5b806397f75dd911610164578063a919802d1161013e578063a919802d146107ff578063b3d7f6b914610813578063b460af9414610833578063ba0876521461085357600080fd5b806397f75dd91461079f578063a457c2d7146107bf578063a9059cbb146107df57600080fd5b80638d33a725116101a05780638d33a7251461060757806394bf804d1461076a57806395d89b411461078a57806397a9d4571461062757600080fd5b80637ecebe001461070f5780638446f9231461072f578063866512031461074a57600080fd5b8063313ce567116102a0578063509a55bb1161023e5780636bd76d24116102185780636bd76d241461067e5780636e553f651461069957806370a08231146106b957806371e11430146106ef57600080fd5b8063509a55bb146106275780635b987baa14610648578063645006ca1461066857600080fd5b8063395093511161027a57806339509351146105c5578063402d267d146105e55780634239e199146106075780634cdad506146103ba57600080fd5b8063313ce567146105475780633644e5151461056957806338d52e0f1461057e57600080fd5b806318160ddd1161030d578063233ac008116102e7578063233ac008146104a15780632394a26d146104e757806323b872dd146105075780632a80cda31461052757600080fd5b806318160ddd1461044a5780631b98f6ac1461045f5780631da8bf101461048157600080fd5b8063095ea7b31161033e578063095ea7b3146103da5780630a28a4771461040a578063152dc8d71461042a57600080fd5b806301e1d1141461037057806306fdde031461039857806307a2d13a146103ba57600080fd5b3661036b57005b600080fd5b34801561037c57600080fd5b506103856109df565b6040519081526020015b60405180910390f35b3480156103a457600080fd5b506103ad610a45565b60405161038f9190612c76565b3480156103c657600080fd5b506103856103d5366004612ca9565b610ad7565b3480156103e657600080fd5b506103fa6103f5366004612cd7565b610aea565b604051901515815260200161038f565b34801561041657600080fd5b50610385610425366004612ca9565b610b0a565b34801561043657600080fd5b506103fa610445366004612cd7565b610b17565b34801561045657600080fd5b50600254610385565b34801561046b57600080fd5b5061047f61047a366004612d42565b610bfa565b005b34801561048d57600080fd5b5061047f61049c366004612e16565b610cc4565b3480156104ad57600080fd5b506103856104bc366004612e87565b6001600160a01b03918216600090815260056020908152604080832093909416825291909152205490565b3480156104f357600080fd5b506103fa610502366004612cd7565b610cf6565b34801561051357600080fd5b506103fa610522366004612ec0565b610d30565b34801561053357600080fd5b5061047f610542366004612ca9565b610d56565b34801561055357600080fd5b5060125b60405160ff909116815260200161038f565b34801561057557600080fd5b50610385610d92565b34801561058a57600080fd5b507f00000000000000000000000000000000000000000000000000000000000000005b6040516001600160a01b03909116815260200161038f565b3480156105d157600080fd5b506103fa6105e0366004612cd7565b610d9c565b3480156105f157600080fd5b50610385610600366004612f01565b50600c5490565b34801561061357600080fd5b506103fa610622366004612cd7565b610dab565b34801561063357600080fd5b50610385610642366004612f01565b50600090565b34801561065457600080fd5b5061047f610663366004612e16565b610ddf565b34801561067457600080fd5b50610385600b5481565b34801561068a57600080fd5b50610385610622366004612e87565b3480156106a557600080fd5b506103856106b4366004612f1e565b610f43565b3480156106c557600080fd5b506103856106d4366004612f01565b6001600160a01b031660009081526020819052604090205490565b3480156106fb57600080fd5b5061047f61070a366004612f01565b610fbd565b34801561071b57600080fd5b5061038561072a366004612f01565b61114c565b34801561073b57600080fd5b50610385610642366004612ca9565b34801561075657600080fd5b5061047f610765366004612ca9565b61116a565b34801561077657600080fd5b50610385610785366004612f1e565b6111e5565b34801561079657600080fd5b506103ad6111ff565b3480156107ab57600080fd5b50600a546105ad906001600160a01b031681565b3480156107cb57600080fd5b506103fa6107da366004612cd7565b61120e565b3480156107eb57600080fd5b506103fa6107fa366004612cd7565b61121d565b34801561080b57600080fd5b5060006105ad565b34801561081f57600080fd5b5061038561082e366004612ca9565b61122b565b34801561083f57600080fd5b5061038561084e366004612f43565b611238565b34801561085f57600080fd5b5061038561086e366004612f43565b6112fd565b34801561087f57600080fd5b5061038561088e366004612f01565b5060001990565b3480156108a157600080fd5b506103856108b0366004612ca9565b6113b1565b3480156108c157600080fd5b506103856108d0366004612f01565b6113be565b3480156108e157600080fd5b50610385610622366004612f1e565b3480156108fc57600080fd5b50610385610622366004612f43565b34801561091757600080fd5b50610385610926366004612f01565b6113c9565b34801561093757600080fd5b50610385600c5481565b34801561094d57600080fd5b5061038561095c366004612e87565b6113de565b34801561096d57600080fd5b5061097661140f565b60405161038f9190612f85565b34801561098f57600080fd5b506000610557565b3480156109a357600080fd5b506000610385565b3480156109b757600080fd5b506105ad7f000000000000000000000000000000000000000000000000000000000000000081565b6000610a407f00000000000000000000000000000000000000000000000000000000000000006040518060400160405280601181526020017f6765744465706f73697442616c616e6365000000000000000000000000000000815250611470565b905090565b606060038054610a5490612fd2565b80601f0160208091040260200160405190810160405280929190818152602001828054610a8090612fd2565b8015610acd5780601f10610aa257610100808354040283529160200191610acd565b820191906000526020600020905b815481529060010190602001808311610ab057829003601f168201915b5050505050905090565b6000610ae48260006115ce565b92915050565b600033610b008185610afb86610ad7565b6116aa565b5060019392505050565b6000610ae48260016117be565b3360008181526005602090815260408083206001600160a01b038716845290915281205490919083811015610bb95760405162461bcd60e51b815260206004820152602560248201527f45524332303a2064656372656173656420616c6c6f77616e63652062656c6f7760448201527f207a65726f00000000000000000000000000000000000000000000000000000060648201526084015b60405180910390fd5b6001600160a01b03808316600090815260056020908152604080832093891683529290522054610bef90839087908790036116aa565b506001949350505050565b805160005b81811015610c745760006001600160a01b0316838281518110610c2457610c2461301f565b60200260200101516001600160a01b031603610c6c576040517f996aa3ce00000000000000000000000000000000000000000000000000000000815260040160405180910390fd5b600101610bff565b508151610c88906009906020850190612bb8565b507f32e7fb34fed79bbb365c7c067731ee80348d07c9bb4a54d399d3c389c2fa9a2f82604051610cb89190612f85565b60405180910390a15050565b6040517fcd055d4f00000000000000000000000000000000000000000000000000000000815260040160405180910390fd5b3360008181526005602090815260408083206001600160a01b0387168452909152812054909190610b009082908690610afb90879061307d565b600033610d3e858285611878565b610d49858585611890565b60019150505b9392505050565b600b8190556040518181527fb4ed0a1ef6754bd8de43894bd7e4c2fe602ba7a2a1d5b61f7113018c09e4c1f1906020015b60405180910390a150565b6000610a40611a8b565b6000610b008361050284610ad7565b60006040517fcd055d4f00000000000000000000000000000000000000000000000000000000815260040160405180910390fd5b83421115610e2f5760405162461bcd60e51b815260206004820152601060248201527f4578706972656420646561646c696e65000000000000000000000000000000006044820152606401610bb0565b60007ffdcf6aadd7cc7bc23e48366f2a276a0b759febae6efb52f5169a05e5f4595e6e888888610e5e8c611bb2565b6040805160208101969096526001600160a01b0394851690860152929091166060840152608083015260a082015260c0810186905260e0016040516020818303038152906040528051906020012090506000610eb982611bda565b90506000610ec982878787611c43565b9050896001600160a01b0316816001600160a01b031614610f2c5760405162461bcd60e51b815260206004820152601160248201527f496e76616c6964207369676e61747572650000000000000000000000000000006044820152606401610bb0565b610f378a8a8a6116aa565b50505050505050505050565b6000610f4e600c5490565b610f566109df565b610f60908561307d565b1180610f6d5750600b5483105b15610fa4576040517f7eb0313200000000000000000000000000000000000000000000000000000000815260040160405180910390fd5b6000610faf846113b1565b9050610d4f33848684611c6b565b610fc681611d4f565b610ffc576040517f996aa3ce00000000000000000000000000000000000000000000000000000000815260040160405180910390fd5b600a80547fffffffffffffffffffffffff0000000000000000000000000000000000000000166001600160a01b0383161790556111137f0000000000000000000000000000000000000000000000000000000000000000600a546001600160a01b03166304a153ab7f00000000000000000000000000000000000000000000000000000000000000006040517fffffffff0000000000000000000000000000000000000000000000000000000060e084901b1681526001600160a01b039091166004820152306024820152604401602060405180830381865afa1580156110e7573d6000803e3d6000fd5b505050506040513d601f19601f8201168201806040525081019061110b9190613095565b600019611da5565b6040516001600160a01b03821681527fc89d285be92e3411873a944fedd41eac9571d1863e95ad42e201990d602fe3fa90602001610d87565b6001600160a01b038116600090815260076020526040812054610ae4565b8015806111795750600b548111155b156111b0576040517f996aa3ce00000000000000000000000000000000000000000000000000000000815260040160405180910390fd5b600c8190556040518181527f2bc390be6d76c38a7a1e46eb6629b370c4cd792e13afd099527cbce28c5ecf7790602001610d87565b6000806111f18461122b565b9050610d4f33848387611c6b565b606060048054610a5490612fd2565b6000610b008361044584610ad7565b600033610b00818585611890565b6000610ae48260016115ce565b6000336001600160a01b038316811461125e5761125e8382611259886113b1565b611878565b84600003611298576040517f4116260100000000000000000000000000000000000000000000000000000000815260040160405180910390fd5b6112a1836113be565b8511156112da576040517fd4fbc29a00000000000000000000000000000000000000000000000000000000815260040160405180910390fd5b60006112e586610b0a565b90506112f48286868985611f53565b95945050505050565b6000336001600160a01b038316811461131b5761131b838287611878565b84600003611355576040517f849309bc00000000000000000000000000000000000000000000000000000000815260040160405180910390fd5b61135e836113c9565b851115611397576040517fcb4135bb00000000000000000000000000000000000000000000000000000000815260040160405180910390fd5b60006113a286610ad7565b90506112f4338686848a611f53565b6000610ae48260006117be565b6000610ae48261204f565b6000610ae46113d78361204f565b60006117be565b6001600160a01b038083166000908152600560209081526040808320938516835292905290812054610d4f906113b1565b60606009805480602002602001604051908101604052809291908181526020018280548015610acd57602002820191906000526020600020905b81546001600160a01b03168152600190910190602001808311611449575050505050905090565b60095460405160009190829061148a9085906020016130b2565b60408051601f19818403018152908290526001600160a01b0387166024830152306044830181905260648301529060840160408051601f1981840301815290829052916114d6916130f3565b6040519081900390206020820180517bffffffffffffffffffffffffffffffffffffffffffffffffffffffff167fffffffff000000000000000000000000000000000000000000000000000000009092169190911790529050606060005b838110156115c4576115a5836040518060400160405280601581526020017f3a2062616c616e63652063616c6c206661696c65640000000000000000000000815250600984815481106115895761158961301f565b6000918252602090912001546001600160a01b03169190612071565b91506115b08261310f565b6115ba908661307d565b9450600101611534565b5050505092915050565b6000806115da60025490565b905080156115fb576115f66115ed6109df565b859083866120e9565b6116a2565b6116a27f00000000000000000000000000000000000000000000000000000000000000006001600160a01b031663313ce5676040518163ffffffff1660e01b8152600401602060405180830381865afa15801561165c573d6000803e3d6000fd5b505050506040513d601f19601f820116820180604052508101906116809190613133565b61168b90600a613234565b60125b61169990600a613234565b869190866120e9565b949350505050565b6001600160a01b0383166117005760405162461bcd60e51b815260206004820152600c60248201527f5a65726f206164647265737300000000000000000000000000000000000000006044820152606401610bb0565b6001600160a01b0382166117565760405162461bcd60e51b815260206004820152600c60248201527f5a65726f206164647265737300000000000000000000000000000000000000006044820152606401610bb0565b6001600160a01b038381166000818152600560209081526040808320948716808452948252918290208590558151938452830184905290917f7361992bf16bfdca3c21740dec888a3f2d9024c18cd5e8a80b555251ebcdc00e910160405180910390a2505050565b6000806117ca60025490565b90508315806117d7575080155b6117e7576115f6816116996109df565b6116a26117f66012600a613234565b7f00000000000000000000000000000000000000000000000000000000000000006001600160a01b031663313ce5676040518163ffffffff1660e01b8152600401602060405180830381865afa158015611854573d6000803e3d6000fd5b505050506040513d601f19601f8201168201806040525081019061168e9190613133565b61188b838361188684610ad7565b61213a565b505050565b6001600160a01b03831661190c5760405162461bcd60e51b815260206004820152602560248201527f45524332303a207472616e736665722066726f6d20746865207a65726f20616460448201527f64726573730000000000000000000000000000000000000000000000000000006064820152608401610bb0565b6001600160a01b0382166119885760405162461bcd60e51b815260206004820152602360248201527f45524332303a207472616e7366657220746f20746865207a65726f206164647260448201527f65737300000000000000000000000000000000000000000000000000000000006064820152608401610bb0565b6119938383836121c6565b6001600160a01b03831660009081526020819052604090205481811015611a225760405162461bcd60e51b815260206004820152602660248201527f45524332303a207472616e7366657220616d6f756e742065786365656473206260448201527f616c616e636500000000000000000000000000000000000000000000000000006064820152608401610bb0565b6001600160a01b03848116600081815260208181526040808320878703905593871680835291849020805487019055925185815290927fddf252ad1be2c89b69c2b068fc378daa952ba7f163c4a11628f55a4df523b3ef91015b60405180910390a35b50505050565b6000306001600160a01b037f000000000000000000000000000000000000000000000000000000000000000016148015611ae457507f000000000000000000000000000000000000000000000000000000000000000046145b15611b0e57507f000000000000000000000000000000000000000000000000000000000000000090565b50604080517f00000000000000000000000000000000000000000000000000000000000000006020808301919091527f0000000000000000000000000000000000000000000000000000000000000000828401527f000000000000000000000000000000000000000000000000000000000000000060608301524660808301523060a0808401919091528351808403909101815260c0909201909252805191012090565b6001600160a01b03811660009081526007602052604090208054600181018255905b50919050565b6000610ae4611be7611a8b565b836040517f19010000000000000000000000000000000000000000000000000000000000006020820152602281018390526042810182905260009060620160405160208183030381529060405280519060200120905092915050565b6000806000611c548787878761222d565b91509150611c61816122f1565b5095945050505050565b611c977f0000000000000000000000000000000000000000000000000000000000000000853085612459565b611cf77f0000000000000000000000000000000000000000000000000000000000000000836040518060400160405280600781526020017f6465706f736974000000000000000000000000000000000000000000000000008152506124aa565b611d01838261259f565b826001600160a01b0316846001600160a01b03167fdcbc1c05240f31ff3ad067ef1ee35ce4997762752e3a095284754544f4c709d78484604051611a7c929190918252602082015260400190565b600954600090815b81811015611d9e5760098181548110611d7257611d7261301f565b6000918252602090912001546001600160a01b0390811690851603611d9657600192505b600101611d57565b5050919050565b801580611e3857506040517fdd62ed3e0000000000000000000000000000000000000000000000000000000081523060048201526001600160a01b03838116602483015284169063dd62ed3e90604401602060405180830381865afa158015611e12573d6000803e3d6000fd5b505050506040513d601f19601f82011682018060405250810190611e369190613243565b155b611eaa5760405162461bcd60e51b815260206004820152603660248201527f5361666545524332303a20617070726f76652066726f6d206e6f6e2d7a65726f60448201527f20746f206e6f6e2d7a65726f20616c6c6f77616e6365000000000000000000006064820152608401610bb0565b6040516001600160a01b03831660248201526044810182905261188b9084907f095ea7b300000000000000000000000000000000000000000000000000000000906064015b60408051601f198184030181529190526020810180517bffffffffffffffffffffffffffffffffffffffffffffffffffffffff167fffffffff000000000000000000000000000000000000000000000000000000009093169290921790915261266a565b611f5d838261274f565b611fbd7f0000000000000000000000000000000000000000000000000000000000000000836040518060400160405280600881526020017f77697468647261770000000000000000000000000000000000000000000000008152506124aa565b611fe87f000000000000000000000000000000000000000000000000000000000000000085846128c4565b826001600160a01b0316846001600160a01b0316866001600160a01b03167ffbde797d201c681b91056529119e0b02407c7bb96a4a2c75c01fc9667232c8db8585604051612040929190918252602082015260400190565b60405180910390a45050505050565b6001600160a01b038116600090815260208190526040812054610ae490610ad7565b6060600080856001600160a01b03168560405161208e91906130f3565b600060405180830381855afa9150503d80600081146120c9576040519150601f19603f3d011682016040523d82523d6000602084013e6120ce565b606091505b50915091506120df8683838761290d565b9695505050505050565b6000806120f7868686612986565b9050600183600281111561210d5761210d61325c565b14801561212a5750600084806121255761212561328b565b868809115b156112f4576120df60018261307d565b6001600160a01b038381166000908152600560209081526040808320938616835292905220546000198114611a8557818110156121b95760405162461bcd60e51b815260206004820152601e60248201527f496e73756666696369656e74207769746864726177416c6c6f77616e636500006044820152606401610bb0565b611a8584848484036116aa565b6001600160a01b0383161561188b576121de836113c9565b81111561188b5760405162461bcd60e51b815260206004820152601660248201527f5472616e73666572206d6f7265207468616e206d6178000000000000000000006044820152606401610bb0565b6000807f7fffffffffffffffffffffffffffffff5d576e7357a4501ddfe92f46681b20a083111561226457506000905060036122e8565b6040805160008082526020820180845289905260ff881692820192909252606081018690526080810185905260019060a0016020604051602081039080840390855afa1580156122b8573d6000803e3d6000fd5b5050604051601f1901519150506001600160a01b0381166122e1576000600192509250506122e8565b9150600090505b94509492505050565b60008160048111156123055761230561325c565b0361230d5750565b60018160048111156123215761232161325c565b0361236e5760405162461bcd60e51b815260206004820152601860248201527f45434453413a20696e76616c6964207369676e617475726500000000000000006044820152606401610bb0565b60028160048111156123825761238261325c565b036123cf5760405162461bcd60e51b815260206004820152601f60248201527f45434453413a20696e76616c6964207369676e6174757265206c656e677468006044820152606401610bb0565b60038160048111156123e3576123e361325c565b036124565760405162461bcd60e51b815260206004820152602260248201527f45434453413a20696e76616c6964207369676e6174757265202773272076616c60448201527f75650000000000000000000000000000000000000000000000000000000000006064820152608401610bb0565b50565b6040516001600160a01b0380851660248301528316604482015260648101829052611a859085907f23b872dd0000000000000000000000000000000000000000000000000000000090608401611eef565b6000816040516020016124bd91906132ba565b60408051601f19818403018152908290526001600160a01b0386166024830152604482018590523060648301529060840160408051601f198184030181529082905291612509916130f3565b60405180910390207bffffffffffffffffffffffffffffffffffffffffffffffffffffffff19166020820180517bffffffffffffffffffffffffffffffffffffffffffffffffffffffff83818316178352505050509050612598818360405160200161257591906132fb565b60408051601f19818403018152919052600a546001600160a01b03169190612a35565b5050505050565b6001600160a01b0382166125f55760405162461bcd60e51b815260206004820152601f60248201527f45524332303a206d696e7420746f20746865207a65726f2061646472657373006044820152606401610bb0565b612601600083836121c6565b8060026000828254612613919061307d565b90915550506001600160a01b038216600081815260208181526040808320805486019055518481527fddf252ad1be2c89b69c2b068fc378daa952ba7f163c4a11628f55a4df523b3ef910160405180910390a35050565b60006126bf826040518060400160405280602081526020017f5361666545524332303a206c6f772d6c6576656c2063616c6c206661696c6564815250856001600160a01b0316612a8d9092919063ffffffff16565b80519091501561188b57808060200190518101906126dd919061333c565b61188b5760405162461bcd60e51b815260206004820152602a60248201527f5361666545524332303a204552433230206f7065726174696f6e20646964206e60448201527f6f742073756363656564000000000000000000000000000000000000000000006064820152608401610bb0565b6001600160a01b0382166127cb5760405162461bcd60e51b815260206004820152602160248201527f45524332303a206275726e2066726f6d20746865207a65726f2061646472657360448201527f73000000000000000000000000000000000000000000000000000000000000006064820152608401610bb0565b6127d7826000836121c6565b6001600160a01b038216600090815260208190526040902054818110156128665760405162461bcd60e51b815260206004820152602260248201527f45524332303a206275726e20616d6f756e7420657863656564732062616c616e60448201527f63650000000000000000000000000000000000000000000000000000000000006064820152608401610bb0565b6001600160a01b0383166000818152602081815260408083208686039055600280548790039055518581529192917fddf252ad1be2c89b69c2b068fc378daa952ba7f163c4a11628f55a4df523b3ef910160405180910390a3505050565b6040516001600160a01b03831660248201526044810182905261188b9084907fa9059cbb0000000000000000000000000000000000000000000000000000000090606401611eef565b6060831561297c578251600003612975576001600160a01b0385163b6129755760405162461bcd60e51b815260206004820152601d60248201527f416464726573733a2063616c6c20746f206e6f6e2d636f6e74726163740000006044820152606401610bb0565b50816116a2565b6116a28383612a9c565b60008080600019858709858702925082811083820303915050806000036129c0578382816129b6576129b661328b565b0492505050610d4f565b8084116129cc57600080fd5b60008486880960026001871981018816978890046003810283188082028403028082028403028082028403028082028403028082028403029081029092039091026000889003889004909101858311909403939093029303949094049190911702949350505050565b6060600080856001600160a01b031685604051612a5291906130f3565b600060405180830381855af49150503d80600081146120c9576040519150601f19603f3d011682016040523d82523d6000602084013e6120ce565b60606116a28484600085612ac6565b815115612aac5781518083602001fd5b8060405162461bcd60e51b8152600401610bb09190612c76565b606082471015612b3e5760405162461bcd60e51b815260206004820152602660248201527f416464726573733a20696e73756666696369656e742062616c616e636520666f60448201527f722063616c6c00000000000000000000000000000000000000000000000000006064820152608401610bb0565b600080866001600160a01b03168587604051612b5a91906130f3565b60006040518083038185875af1925050503d8060008114612b97576040519150601f19603f3d011682016040523d82523d6000602084013e612b9c565b606091505b5091509150612bad8783838761290d565b979650505050505050565b828054828255906000526020600020908101928215612c25579160200282015b82811115612c2557825182547fffffffffffffffffffffffff0000000000000000000000000000000000000000166001600160a01b03909116178255602090920191600190910190612bd8565b50612c31929150612c35565b5090565b5b80821115612c315760008155600101612c36565b60005b83811015612c65578181015183820152602001612c4d565b83811115611a855750506000910152565b6020815260008251806020840152612c95816040850160208701612c4a565b601f01601f19169190910160400192915050565b600060208284031215612cbb57600080fd5b5035919050565b6001600160a01b038116811461245657600080fd5b60008060408385031215612cea57600080fd5b8235612cf581612cc2565b946020939093013593505050565b7f4e487b7100000000000000000000000000000000000000000000000000000000600052604160045260246000fd5b8035612d3d81612cc2565b919050565b60006020808385031215612d5557600080fd5b823567ffffffffffffffff80821115612d6d57600080fd5b818501915085601f830112612d8157600080fd5b813581811115612d9357612d93612d03565b8060051b604051601f19603f83011681018181108582111715612db857612db8612d03565b604052918252848201925083810185019188831115612dd657600080fd5b938501935b82851015612dfb57612dec85612d32565b84529385019392850192612ddb565b98975050505050505050565b60ff8116811461245657600080fd5b600080600080600080600060e0888a031215612e3157600080fd5b8735612e3c81612cc2565b96506020880135612e4c81612cc2565b955060408801359450606088013593506080880135612e6a81612e07565b9699959850939692959460a0840135945060c09093013592915050565b60008060408385031215612e9a57600080fd5b8235612ea581612cc2565b91506020830135612eb581612cc2565b809150509250929050565b600080600060608486031215612ed557600080fd5b8335612ee081612cc2565b92506020840135612ef081612cc2565b929592945050506040919091013590565b600060208284031215612f1357600080fd5b8135610d4f81612cc2565b60008060408385031215612f3157600080fd5b823591506020830135612eb581612cc2565b600080600060608486031215612f5857600080fd5b833592506020840135612f6a81612cc2565b91506040840135612f7a81612cc2565b809150509250925092565b6020808252825182820181905260009190848201906040850190845b81811015612fc65783516001600160a01b031683529284019291840191600101612fa1565b50909695505050505050565b600181811c90821680612fe657607f821691505b602082108103611bd4577f4e487b7100000000000000000000000000000000000000000000000000000000600052602260045260246000fd5b7f4e487b7100000000000000000000000000000000000000000000000000000000600052603260045260246000fd5b7f4e487b7100000000000000000000000000000000000000000000000000000000600052601160045260246000fd5b600082198211156130905761309061304e565b500190565b6000602082840312156130a757600080fd5b8151610d4f81612cc2565b600082516130c4818460208701612c4a565b7f28616464726573732c616464726573732c616464726573732900000000000000920191825250601901919050565b60008251613105818460208701612c4a565b9190910192915050565b80516020808301519190811015611bd45760001960209190910360031b1b16919050565b60006020828403121561314557600080fd5b8151610d4f81612e07565b600181815b8085111561318b5781600019048211156131715761317161304e565b8085161561317e57918102915b93841c9390800290613155565b509250929050565b6000826131a257506001610ae4565b816131af57506000610ae4565b81600181146131c557600281146131cf576131eb565b6001915050610ae4565b60ff8411156131e0576131e061304e565b50506001821b610ae4565b5060208310610133831016604e8410600b841016171561320e575081810a610ae4565b6132188383613150565b806000190482111561322c5761322c61304e565b029392505050565b6000610d4f60ff841683613193565b60006020828403121561325557600080fd5b5051919050565b7f4e487b7100000000000000000000000000000000000000000000000000000000600052602160045260246000fd5b7f4e487b7100000000000000000000000000000000000000000000000000000000600052601260045260246000fd5b600082516132cc818460208701612c4a565b7f28616464726573732c75696e743235362c616464726573732900000000000000920191825250601901919050565b6000825161330d818460208701612c4a565b7f3a2064656c65676174652063616c6c206661696c656400000000000000000000920191825250601601919050565b60006020828403121561334e57600080fd5b81518015158114610d4f57600080fdfea2646970667358221220a712b4dd5f69c12b2fc2f45515e439456a750bea095d7b862972650febe9ab0664736f6c634300080f0033a2646970667358221220d31d9007d7270da89268b7240bdcf08b0ac78db1749ad7bcc1a4842ead3f48e164736f6c634300080f0033",
    "linkReferences": {}
  },
  "methodIdentifiers": {
    "chief()": "ffd864d3",
    "configAddress(bytes32)": "f6ab6d99",
    "deployVault(bytes)": "cb4cc733",
    "getVaults(address,uint256,uint256)": "903f6a47",
    "vaultsByAsset(address,uint256)": "453131fa",
    "vaultsCount(address)": "ce4c774e"
  }
}